:020000040800F2
:1000000000090020250500085D1F00082D1F0008BD
:10001000491F00082D1F0008411F00082705000880
:10002000270500082705000827050008A13A000851
:10003000270500082705000827050008B53F000828
:1000400027050008270500082705000827050008E0
:100050002705000827050008E53C0008113D0008B9
:100060003D3D0008693D0008953D00082705000852
:1000700027050008270500082705000827050008B0
:100080002705000827050008270500084D2F000850
:10009000B92F00080D30000861300008C13D00088C
:1000A0002705000827050008270500082705000880
:1000B0002705000827050008270500082705000870
:1000C0002705000827050008270500082705000860
:1000D0002705000827050008270500082705000850
:1000E000293E000827050008270500082705000805
:1000F0002705000827050008270500082705000830
:10010000270500082705000827050008270500081F
:10011000270500082705000827050008270500080F
:1001200027050008270500082705000827050008FF
:1001300027050008270500082705000827050008EF
:1001400027050008270500082705000827050008DF
:1001500027050008270500082705000827050008CF
:100160004FF0FF0C1CEAD0521EBF1CEAD15392EA9A
:100170000C0F93EA0C0F6FD01A4480EA010C400276
:1001800018BF5FEA41211ED04FF0006343EA5010D0
:1001900043EA5111A0FB01310CF00040B1F5000F12
:1001A0003EBF490041EAD3715B0040EA010062F1C1
:1001B0007F02FD2A1DD8B3F1004F40EBC25008BFAB
:1001C00020F00100704790F0000F0CF0004C08BFC9
:1001D00049024CEA502040EA51207F3AC2BFD2F196
:1001E000FF0340EAC250704740F400004FF00003A4
:1001F000013A5DDC12F1190FDCBF00F000407047DE
:10020000C2F10002410021FA02F1C2F1200200FA1B
:1002100002FC5FEA310040F1000053EA4C0308BFE2
:1002200020EADC70704792F0000F00F0004C02BF33
:10023000400010F4000F013AF9D040EA0C0093F0AE
:10024000000F01F0004C02BF490011F4000F013B08
:10025000F9D041EA0C018FE70CEAD15392EA0C0F76
:1002600018BF93EA0C0F0AD030F0004C18BF31F0E1
:10027000004CD8D180EA010000F00040704790F0B7
:10028000000F17BF90F0004F084691F0000F91F05B
:10029000004F14D092EA0C0F01D142020FD193EA21
:1002A0000C0F03D14B0218BF084608D180EA0100A9
:1002B00000F0004040F0FE4040F40000704740F085
:1002C000FE4040F44000704780F0004002E000BF74
:1002D00081F0004142001FBF5FEA410392EA030F31
:1002E0007FEA226C7FEA236C6AD04FEA1262D2EB7B
:1002F0001363C1BFD218414048404140B8BF5B4280
:10030000192B88BF704710F0004F40F4000020F018
:100310007F4018BF404211F0004F41F4000121F02E
:100320007F4118BF494292EA030F3FD0A2F1010278
:1003300041FA03FC10EB0C00C3F1200301FA03F1B6
:1003400000F0004302D5494260EB4000B0F5000FD9
:1003500013D3B0F1807F06D340084FEA310102F198
:100360000102FE2A51D2B1F1004F40EBC25008BF4A
:1003700020F0010040EA03007047490040EB000014
:10038000013A28BFB0F5000FEDD2B0FA80FCACF115
:10039000080CB2EB0C0200FA0CF0AABF00EBC25042
:1003A00052421843BCBFD0401843704792F0000F30
:1003B00081F4000106BF80F400000132013BB5E783
:1003C0004FEA41037FEA226C18BF7FEA236C21D0F9
:1003D00092EA030F04D092F0000F08BF084670475E
:1003E00090EA010F1CBF0020704712F07F4F04D12C
:1003F000400028BF40F00040704712F100723CBF3F
:1004000000F50000704700F0004343F0FE4040F468
:10041000000070477FEA226216BF08467FEA236326
:100420000146420206BF5FEA412390EA010F40F411
:10043000800070474FF0000304E000BF10F000435D
:1004400048BF40425FEA000C08BF704743F0964344
:1004500001464FF000001CE050EA010208BF70475F
:100460004FF000030AE000BF50EA010208BF7047E6
:1004700011F0004302D5404261EB41015FEA010CFB
:1004800002BF84460146002043F0B64308BFA3F1F3
:100490008053A3F50003BCFA8CF2083AA3EBC253D5
:1004A00010DB01FA02FC634400FA02FCC2F12002F4
:1004B000BCF1004F20FA02F243EB020008BF20F02B
:1004C0000100704702F1200201FA02FCC2F1200291
:1004D00050EA4C0021FA02F243EB020008BF20EA86
:1004E000DC70704742000ED2B2F1FE4F0BD34FF0DA
:1004F0009E03B3EB126209D44FEA002343F000439A
:1005000023FA02F070474FF00000704712F1610FBC
:1005100001D1420202D14FF0FF3070474FF000008E
:10052000704700BF02E000F000F8FEE772B6264810
:1005300080F30888254880F3098825482549086004
:10054000022080F31488BFF36F8F03F0F9FA03F0F1
:100550005DFB4FF0553020491B4A91423CBF41F8AA
:10056000040BFAE71D49194A91423CBF41F8040BBC
:10057000FAE71B491B4A1C4B9A423EBF51F8040B39
:1005800042F8040BF8E700201849194A91423CBF91
:1005900041F8040BFAE703F0D7FA03F039FB154CE6
:1005A000154DAC4203DA54F8041B8847F9E700F014
:1005B000EFFA124C124DAC4203DA54F8041B884790
:1005C000F9E703F0BFBA0000000900200011002085
:1005D0000000000808ED00E00001002000090020F4
:1005E000484000080011002024110020281100209C
:1005F000D0250020600100086001000860010008AB
:10060000600100082DE9F04FC1F80CD0C3689D4689
:10061000BDE8F08F002383F311882846A04700200F
:1006200002F0BEFFFEE702F057FF00DFFEE700002A
:10063000032A10B516D940EA010C1CF0030F04463A
:100640000B4622D119462046D1F800E0D0F800C070
:100650000433F44504F1040417D1043A032A204674
:100660001946EFD8541EA2B100F1FF3C013901E058
:10067000C3180CD01CF801EF11F8012FA4EB0C03E8
:100680009645F5D0AEEB020010BD541EECE71846BF
:1006900010BD104610BD00BF2DE9F04F012B0646DE
:1006A0008A461546ADF21C4D40F221814FF00109FA
:1006B00000204FF0FF3849464A4606E01046012127
:1006C000A2EB0809421893420FD905EB0804645CB9
:1006D000AF5CA742F2D300F08B804FF0010949468E
:1006E0008046484442189342EFD84FF0010C002056
:1006F0004FF0FF346146624606E010460121A2EB4E
:10070000040C421893420ED92F197F5C15F802E0B1
:10071000BE45F2D872D04FF0010C614604466044E9
:1007200042189342F0D8013408F10108A04501D8DD
:10073000E146A04605AA0DF2144142F8043F8A4260
:10074000FBD1002B00F0CF805C1E691E05EB040C72
:1007500006AF11F8010FCA431A442A44614547F80D
:100760002020F6D14246284605EB09010193FFF708
:100770005FFF019B0246AAEB030A002867D1A3EBA7
:100780000903029308F1FF330593C8F101030493B1
:10079000CDF80C90034601950AE022B1039A9142EC
:1007A000029A38BF11460B4453454FF0000249D816
:1007B00006EB030B1BF8041057F821100029ECD1AD
:1007C0004245114638BF4146A1421DD201984D1EF7
:1007D00005445818304402E00131A14214D210F807
:1007E00001CB15F801EFE645F6D0049A1344DAE799
:1007F00089450ABF01210131484463E761450ABFC9
:100800004018013101217CE74245059974D2019DD0
:1008100003EB08003044454402E08A4261D061465F
:1008200010F801CD15F801ED01F10109E64501F1DE
:10083000FF3CF2D001324A4562D8039A1344534533
:10084000029AB5D900200DF21C4DBDE8F08FA3EB44
:100850000803434538BF43460022013306EB020933
:10086000029319F80430C8F1010157F8233008F158
:10087000FF3B019153B11A445245E3D806EB0209FC
:1008800019F8043057F82330002BF4D1A04513D2C7
:1008900008EB02014346314405EB0B0002E0013353
:1008A000A34209D211F801CB10F801EFE645F6D0CA
:1008B00001990A441A44DFE7B8F1000F1ED008EB93
:1008C0000200304405EB080102E0013BAB4215D0C9
:1008D0000B4610F801CD11F801EDE645F5D0029B6D
:1008E000C9E79146A6E74FF0FF3406AF3AE74FF06D
:1008F00001094FF000081DE7C1469BE74846A2E703
:100900005846A0E72DE9F0470446C0B0002B68D058
:10091000012B90461F4600F087808B425DD8CD1A90
:10092000022B00EB050660D0B3F5807F00F28480D7
:1009300000214FF4807268465D1E00F0CFFF4046F4
:1009400001210246437812780130A3EBC203DBB2E7
:100950000DF8031001318D42F3D84FF0000A08EB77
:10096000070313F8022C18F80530A3EBC203DBB21F
:100970001DF803900DF80350A5EB0909B44201D905
:100980002BE063B92C4414F8013C94F800C0A64253
:10099000ACEBC30C5FFA8CFC1DF80C30F1D29D421D
:1009A000A4EB0304EAD80F2D07D9042208EB0A01AF
:1009B00004EB0A00FFF73CFE60B92A464146204698
:1009C000FFF736FE68B1BAF1030F8CBFAAF1040A33
:1009D000A7F1050A4C44B442D4D9002040B0BDE888
:1009E000F087204640B0BDE8F0871378557801784D
:1009F00045EA0345034613F8012F9E4242EA0142AD
:100A00001ED39542EDD0013601E09542E6D018465E
:100A100013F8011FB34241EA0242F6D1954208BFE2
:100A200006F1FF30D9D1D9E70A4698F8001040B056
:100A3000BDE8F04700F064B840B0BDE8F0472BE6F1
:100A40001E46EBE780EA0102844612F0030F4FD105
:100A500011F0030F32D14DF8044D11F0040F51F88D
:100A6000043B0BD0A3F101329A4312F0803F04BF44
:100A70004CF8043B51F8043B16D100BF51F8044B2D
:100A8000A3F101329A4312F0803FA4F101320BD15D
:100A90004CF8043BA24312F0803F04BF51F8043BE2
:100AA0004CF8044BEAD023460CF8013B13F0FF0F3F
:100AB0004FEA3323F8D15DF8044B704711F0010F72
:100AC00006D011F8012B0CF8012B002A08BF704743
:100AD00011F0020FBFD031F8022B12F0FF0F16BF3A
:100AE0002CF8022B8CF8002012F47F4FB3D1704702
:100AF00011F8012B0CF8012B002AF9D1704700BF27
:100B00005FFA81FC810710D00346511E2AB90AE022
:100B10009A0718460AD0013905D3184613F8012B55
:100B20006245F5D1704700207047114603290CD863
:100B30000029F8D00346014401E08B42F3D0184667
:100B400013F8012B6245F8D1ECE7024610B54CEAE8
:100B50000C2444EA04441046036804326340A3F1C1
:100B6000013E2EEA030313F0803F04D10439032928
:100B70001046F0D851B10346014401E08B4205D044
:100B8000184613F8012B6245F8D110BD002010BDA6
:100B90002DE9F04100F030FE02F020FF074602F0A0
:100BA0006BFF0546B8BB2E4B9F4234D001339F42AA
:100BB00034D02C4B27F0FF029A4232D1F8B200F029
:100BC0000FFC2E4642F2107400F010FC68B301F0E6
:100BD00035F910B1032000F04BF800242646DFF869
:100BE00088805DB3214B9F4228D002F03DFF00205A
:100BF00002F0FEFED8F80830002400F057FC01F0A7
:100C0000AFF9054634B301F0ABF9401BA04221D93E
:100C100000F044F8F3E72E460024D5E70446012609
:100C2000D2E706464FF47A74CEE701F007F90028C0
:100C3000D0D1B4F57A7F08BF0126D0E7002002F0BA
:100C4000D7FED8F808305B06D6D5002ED5D000F0F8
:100C500025F8D2E700F0C8FC012002F0A7FCD1E79C
:100C6000010007B0000008B0000C0140263A09B0AE
:100C7000084B187003280CD8DFE800F008050208BC
:100C8000022000F015BE022000F00ABE0022024B36
:100C90005A607047301100202811002038B501F04B
:100CA000CDF830B103221F4B1A7000221E4B5A6040
:100CB00038BD1E4B1E4A19680131F9D004339342E6
:100CC000F9D11C4C194DD4F80424AA42F0D31A4B84
:100CD0009B6803F1006303F5C8439A42E8D202F02F
:100CE00097FE02F0A9FE002000F0A0FD0220FFF711
:100CF000BFFF124BDA690022DA61D96999699A61FA
:100D00009B6972B64FF0E023C3F8085D3021D4F838
:100D10000034D4F8042481F311889D4683F30888B5
:100D20001047C5E73011002028110020006400089A
:100D3000206400080060000800110020001002403C
:100D400049F26900084A136899B21B0C00FB013391
:100D500044F250611360054B186882B2000C01FB2D
:100D60000200186080B2704714110020101100209A
:100D700010B504460021102200F0B0FD034B03CB58
:100D8000206061601868A06010BD00BFE8F7FF1F19
:100D900070B50D4614461E4601F074FB20B9022EB4
:100DA00001D1012C12D070BD282C13D005D8012CF4
:100DB00014D0052C16D00020F5E7302CFBD10CA365
:100DC000D3E900230120C5E90023ECE70AA3D3E916
:100DD0000023F7E70AA3D3E90023F3E70AA3D3E943
:100DE0000023EFE70AA3D3E90023EBE7AFF300808A
:100DF00078F6339F93CACD8D401DA12026812A0B02
:100E000026417272DF25D7B79E6AC421818A46EED9
:100E1000F017304A39059E562DE9F0410026ADF510
:100E20004E7D6CAC40F2751207460D460EA8314659
:100E30000D9600F053FD4FF4C4723146204600F089
:100E40004DFD01F08DF84FF47A72B0FBF2F0264BB5
:100E50000DF13408186093E80700022384E80700C6
:100E60000DF5E9702382FFF783FF4EF603031F4958
:100E700007A82384FFF7E6FD17230DF2E32284F889
:100E800032310DF12C0C07AB1E4603CE66451060C7
:100E90005160334602F10802F6D130681060B18823
:100EA000B3792046918093714146012200F062FDA2
:100EB000002380B2CDE904800393AB7E38460293D1
:100EC00005F11903019301230093E97E04A3D3E9FB
:100ED000002301F079FB0DF54E7DBDE8F08100BFE8
:100EE0009E6AC421818A46EE38130020C43F000860
:100EF0002DE9F041264D80462B7A0C46DAB0FBB93D
:100F0000204627A900F058FE0746002836D19DF854
:100F10009D60C82E32D801464FF4FA72284600F080
:100F2000DDFC32460DF19E0105F1090000F0CAFC1E
:100F30009DF89C302E4477722B720BB9E37E2B7296
:100F40008122002106AD27A800F0C8FC0122294615
:100F500027A800F07BFE002380B2CDE90450039364
:100F6000A37E4046029304F11903019328230093C2
:100F7000E17E05A3D3E9002301F026FB5AB0BDE8CA
:100F8000F08100BFAFF3008026417272DF25D7B732
:100F90003C1100204FF48A73F0B50024234EF1B0C9
:100FA00003FB006596F8D830D02221463CA885F88E
:100FB000DC3085F8E84000F091FC06F1090000F013
:100FC0008BFCD5F8E430C2B206AF8DF8F00006F124
:100FD00009010DF1F100CDE93A3400F073FC394616
:100FE00001223AA800F066FE80B2CDE90470082321
:100FF0000127CDE9023706F1D8030193302300938E
:10100000317A0B4807A3D3E9002301F0DDFAA042AF
:1010100006DD00F0A5FFC5F8E000384671B0F0BD70
:101020002046FBE778F6339F93CACD8D3C11002014
:1010300048230020F0B51E4E1E4F1F4D85B0304690
:1010400001F0EEFA044660B310220021684600F079
:1010500045FC4FF00003227B6068A16862F3030344
:101060008DF8003002AB03C3019B2268384662F35F
:101070001C0301939DF800306A4643F020038DF86D
:1010800000300023194602F063F9044620B93046C7
:1010900001F0CAFA2C70D2E72B78072B03D8013362
:1010A0002B7005B0F0BD024801F0BEFAF9E700BFB1
:1010B00048230020A82300203911002010B5044641
:1010C000002100F0D5FB601C0B4C80B2A4F8F001AD
:1010D00000F0B6FB70B1B4F8F00100F0C1FB0146BE
:1010E00040B9B4F8F00100F0C3FBB4F8F0010130EE
:1010F00080B2EBE710BD00BF3C1100202DE9F04F9E
:101100008DB000AF05460C4601F0BCF9002846D171
:10111000237E022B1AD1E38A012B17D100F020FF86
:101120000646FFF70DFE4FF4C873B0FBF3F202FB67
:101130001303DFF88C829BB206F516763344C8F8A9
:101140000030E37E33B900229E4B1A703437BD461F
:10115000BDE8F08F204607F11C0100F0E1FC0028FB
:10116000F4D107F10C00FFF703FEBC7F07F10C017F
:10117000224607F11F00FFF75BFA0028E3D10F2C8E
:1011800008D8904B1C70D8F80030A3F51673C8F837
:101190000030DBE72846397F01F06CF9D6E7E38AB7
:1011A000282B70D010D8012B68D0052BCED1BFF3DF
:1011B0004F8F8549854BCA6802F4E0621343CB60C8
:1011C000BFF34F8F00BFFDE7302BBFD1DFF800A288
:1011D000E17E9AF808209142B8D1617E9AF8DC202D
:1011E0009142B3D120460AF1EA0100F097FD05468D
:1011F0000028ABD101228AF8E82000F0B1FEDAF82D
:10120000E020801A192840F6B83238BF19209042E1
:1012100028BF1046FFF70EF96E49FEF7A1FF0446FE
:10122000DAF80000FFF706F96B49FEF799FF01466F
:101230002046FFF74FF8FFF755F9CAF800004FF4C2
:101240008A729AF8D930DAF804007B6053430AEBCB
:10125000030292F8E81051B1D2F8E440E846844223
:1012600016D0002182F8E810C2F8E010C546DAF87E
:1012700004305A4A9B0A0133138167E72146284606
:10128000FFF7CAFD62E721462846FFF731FE5DE71A
:10129000B2F8EC603B60F21C4FEA920B22F00302C2
:1012A0000732D208A8EBC2039D46E94600214FEA67
:1012B0008B02484600F012FB3B68324603F1EE0118
:1012C0004846514400F0FEFA14B9012000F0AEFA8D
:1012D0009AF8D20000F0B4FA044638B98AF8080047
:1012E00000F0CEFA204600F0A1FABFE7DAF8D420E9
:1012F0003AB99AF8D200BAF8F021824201D8FFF741
:10130000DDFEDAF8D4203244944208D29AF8D200B2
:10131000BAF8F0210130824201D8FFF7CFFE4946EA
:10132000DAF804005FFA8BF200F0E0FA08B9C5467B
:1013300085E7DAF804209AF8D2003244CAF804208B
:10134000DAF8D42006EB0209CAF8D49000F078FA53
:10135000814509D39AF8D22001328AF8D220DAF8EE
:10136000D420121BCAF8D420FF2E10D800248AF8EB
:10137000084000F085FA204600F058FA00F05EFDC3
:10138000164B188108B9FFF789FCC546DEE64FF415
:101390008A727B689AF8D90002FB03A2D2F8E410A3
:1013A00082F8E85001F58071C2F8E050C2F8E4100C
:1013B000FFF7F0FDFFF73EFE8AF8D950B7E700BF10
:1013C000341300203013002000ED00E00400FA0583
:1013D0003C110020CDCCCC3D6666663F3813002022
:1013E000014B1870704700BF4513002030B54FF017
:1013F0000054254B226885B09A4207D002F046FB84
:101400000446C0B90024204605B030BD0025627DE9
:101410001E4B1F481A70237DC92203721D49C0F854
:10142000E450093000F04EFA2046E022294600F050
:1014300055FA0124E7E7184A184DD36943F00073C1
:10144000D361AA6D164B9A42DCD12B6E013B7E2BE9
:10145000D8D8144A01AB07CA83E80700184603210D
:1014600000F0BCFC6B6D83424FF00003CAD12A6DC3
:101470008A4203BFAB652A6E044B1C4601BF1A703B
:10148000EA6D094B1A60BEE79AAD44C545130020CA
:101490003C110020160000200010024000660040B1
:1014A0005041A0B058660040201100202DE9F341C2
:1014B00000F0C4FC0223404C6371404B20811F6844
:1014C000B7F57A7F73D33E4E3E4AB6FBF7F19742AB
:1014D0008CBF0A221122B1FBF2F002FB1013002B89
:1014E00062D1411EB1F5806F62D24FF47A75013A34
:1014F000D1B2C1EBC10C0CF103024FEAE20808FBC8
:101500000555C2F3C7028B1ADBB208F1010E9E44E7
:10151000B5FBFEF5B5F5617F81BF0CF1FF3CCCF367
:10152000C702891ACBB2591E072940D8D11801FB2E
:101530000001B6FBF1F6B74239D180B2013A013B66
:101540001204214942EA0352013802431F484A600B
:1015500001F0EEFE002301931D4B1E4900934FF452
:1015600080521D4B1D4800F05DFF1D4B197811B1D5
:101570001A4800F07FFF00F0F3FC0546FFF7E0FBA0
:101580004FF4C873B0FBF3F202FB130305F51675B5
:101590009BB21D44134B1D6002F06EFA08B10F237D
:1015A000238102B0BDE8F081013A022A93D10023E1
:1015B0001A461846C2E700BF381300202011002049
:1015C000005125023F420F0018110020A8230020DF
:1015D000910D000848130020FD100008482300204A
:1015E00045130020341300202DE9F04F0FF200299D
:1015F000D9E90089744C93B00CADFFF71BFD18229C
:101600000021284600F06AF9704E714F00232A46E7
:101610001946304601F0C4FE0146002800F0A480BF
:10162000204600F02FFF8246002841D100F098FCB0
:10163000684E336898423BD300F092FC0746FFF7B0
:101640007FFB4FF4C873B0FBF3F101FB130007F508
:101650001672DFF884B183B2134433609BF80060E4
:101660002846B6FA86F35B098DF82030FFF780FB39
:10167000C6F11002D2B2062A28BF0622A9190DF11E
:101680002100079200F01EF908AB03931823029380
:10169000524B079A019301230132D2B20492009374
:1016A000204647A3D3E9002300F030FF8BF800A0C9
:1016B00000F056FC4A4ADFF82CA11368C31AB3F5B0
:1016C0007A7F31D3106000F04DFC02460B46204675
:1016D00000F0B4FF204600F0D5FE28B39AF8083099
:1016E000DFF804B1002B0CBF022303238BF8053075
:1016F00000F036FC4FF47A73B0FBF3F00122CBF824
:1017000000002946584600F0E3F918230293374BAE
:1017100080B2019340F25513CDE903500093424645
:101720004B46204600F0F2FE9AF80830CBB100F0AC
:1017300017FC9AF8E8307BB9DAF8E0304BB1C01A00
:10174000DAF80030FA2B38BFFA230533B0EB430F39
:1017500002D30020FFF71EFC9AF80830002B7FF41C
:101760004BAF13B0BDE8F08F102208A800F0B6F818
:10177000FB6883F01003FB6000F0F4FB0DF1240C18
:101780000B4612A9024611E903008CE803009DF8FC
:101790003410C1F30300890649BF0E99BDF8381013
:1017A000C1F31C0141F0004158BFC1F30A018DF89B
:1017B0002C000891204608A901F0FAF826E700BF9E
:1017C000401DA12026812A0B48230020A8230020A9
:1017D000000801403413002030130020441300207F
:1017E000341100203C110020381300203811002053
:1017F000F1C6A7C1D068080F70B501F0AFFF002592
:10180000084E094C308020683388834208D901F0A3
:10181000A1FF236805440133B5F5C84F2360F2D317
:1018200070BD00BFA0230020A423002002F020B838
:1018300000F10060920000F5C84001F0CBBF00004D
:10184000054B1A68054B1B889B1A834202D910442A
:1018500001F080BF00207047A4230020A0230020B7
:10186000024B1B68184401F07BBF00BFA42300207B
:10187000024B1B68184401F087BF00BFA42300205F
:10188000064991F8243033B100230822086A81F810
:101890002430FFF7CDBF0120704700BF7823002020
:1018A000022802BF1022014B1A6170470008014054
:1018B000022802BF4FF48012014B1A61704700BF2B
:1018C00000080140002310B5934200D110BDCC5C4C
:1018D000C4540133F8E70000FFF7FEBF034602449B
:1018E000934200D1704703F8011BF9E72DE9F84353
:1018F0001F4D144695F824200746884622B9DFF884
:1019000070906CB9012009E02B6A03EB82038342DB
:10191000F5D0FFF7B5FF0028F1D10020BDE8F8832E
:1019200095F824302BB92022FF2148462F62FFF77B
:10193000D5FF95F824004146C0F10802A24228BF15
:10194000224605EB8000D6B29200FFF7BBFF95F868
:101950002430A41B1E44F6B2082E17449044E4B26F
:1019600085F82460CDD1FFF78BFF0028C9D1D4E7DB
:10197000782300202DE9F8430D46044600219046C7
:10198000284640F27912FFF7A9FF234620220021C2
:10199000284600F0AFFF022220212846231D00F038
:1019A000A9FF032222212846631D00F0A3FF032282
:1019B00025212846A31D00F09DFF1022282128463E
:1019C00004F1080300F096FF08223821284604F1AC
:1019D000100300F08FFF08224021284604F1110374
:1019E00000F088FF08224821284604F1120300F085
:1019F00081FF20225021284604F1140300F07AFFD1
:101A000040227021284604F1180300F073FF0822D9
:101A1000B021284604F1200300F06CFF0822B82111
:101A2000284604F1210300F065FFC02604F12207D7
:101A30003B46314608222846083600F05BFFB6F5E3
:101A4000A07F07F10107F3D100273146082228467D
:101A500004F1320300F04EFF94F8326004F13309D0
:101A6000F900BE4201F5A4711ED8F70007F5A4766F
:101A7000B8F1000F08D131460722284604F59973C2
:101A800000F038FF07F24F1694F83271B046502F2D
:101A900028BF502704EB0709A1450DD106EBC7006D
:101AA0000730C008BDE8F88309EB07030822284681
:101AB00000F020FF0137D3E7414604F23313082238
:101AC000284600F017FF08F108080134E4E7000099
:101AD00038B50C460021054621600346C4F80310C2
:101AE0002046202200F006FF20462B1D0222202146
:101AF00000F000FF20466B1D0322222100F0FAFEB9
:101B00002046AB1D0322252100F0F4FE20461022C2
:101B1000282105F1080300F0EDFE072038BD000084
:101B2000F7B5047F05460E462CB1838A122B02D9E5
:101B3000012003B0F0BD0023072219462846009675
:101B400000F0B6FD731C00930122002307212846F4
:101B500000F0AEFDD4B9B31C009305222346082142
:101B6000284600F0A5FD0D24B378102BE0D83746A9
:101B7000B278BB1B934210D32A7F0734AB8AE408A8
:101B8000B2B99C4294BF00200120D2E7AB8A08245E
:101B9000DB00083BDB08B370E6E7FB1C2146009343
:101BA00008220023284600F083FD08340137DFE7D0
:101BB000E01A18BF0120BCE7F7B5047F05460E46C2
:101BC0000CBB234608220091214600F071FD08223B
:101BD000731C009311462346284600F069FD10242B
:101BE0007378C82B12D8012372785F1C013B934293
:101BF0001CD32A7FE01DAB8AC00812BB984294BF59
:101C00000020012003E0838ACA2B02D9012003B0FF
:101C1000F0BD002300910822194600F049FDAB8A6F
:101C20000824DB00083BDB087370D9E7F319214671
:101C3000009308220023284600F03AFD08343B4672
:101C4000D2E7C01A18BF0120E1E700002DE9F843F0
:101C50000E4604461546002181223046FFF73EFE1F
:101C6000234608220021304600F044FEADB9072289
:101C700008213046631C00F03DFE0F256778A8461A
:101C80007F2F28BF7F2704EB07094C4507D105EBC1
:101C9000C7000730C008BDE8F8830825EEE74146D5
:101CA000A31C0822304600F025FE08F10808013484
:101CB000EBE700002DE9F0410D46044616460021F1
:101CC000CE222846FFF70AFE234628220021284676
:101CD00000F010FEC6B908222821284604F10803A6
:101CE00000F008FE302614F8088F0027B8F1C80F5E
:101CF00028BF4FF0C808B84506EBC70106D806EB69
:101D0000C800C008BDE8F0812826ECE701370822AA
:101D10002846E31900F0EEFDEDE70000F7B5047F7B
:101D200006460D460CBB012310220091214600F00F
:101D3000BFFCAB1C0093092223461021304600F063
:101D4000B7FC19246B88B3F5807F12D82F466A88B8
:101D50007B1B93421DD3327FE01DB38AC0081ABBA0
:101D6000984294BF0020012004E0838AB3F5827F6B
:101D700002D9012003B0F0BD0123009110220021FF
:101D800000F096FCB38A1024DB00103BDB086B806C
:101D9000D8E73B1D2146009308220023304600F07F
:101DA00087FC08340137D2E7C01A18BF0120E1E7E9
:101DB00030B5094D0A44914200D130BD11F8013BC4
:101DC0005840082340F30004013B2C4013F0FF036C
:101DD00084EA5000F6D1EEE72083B8ED4FF0FF33F0
:101DE000F7B500EB81061946DFF848C0DFF848E098
:101DF000B04203D1D843C94303B0F0BD50F8042B1F
:101E000001AF0192042217F8014B81EA0461082412
:101E10000D46DB184941013C002DBCBF83EA0C0391
:101E200081EA0E0114F0FF04F2D1013A12F0FF0230
:101E3000E9D1DDE79336EAA9EBE1F042F7B56B466D
:101E4000344A106851686A4603C30823324933484C
:101E5000FEF758FD044610B30369B3F5CE3F52D8E0
:101E6000428BB2F57A7F50D12D4A024402F1100123
:101E70008B424CD3103B294900209D1AFFF798FF55
:101E800006462A46002004F11801FFF791FFA368D7
:101E90009E4202D1E368984231D00D2500E00A2528
:101EA0006B46204A106851686A4603C308231E49DE
:101EB0001A48FEF727FD044610B30369B3F5CE3F79
:101EC0001ED8B0F86620B2F57A7F19D1144A0244C0
:101ED00002F15C018B4213D35C3B104900209E1A37
:101EE000FFF766FF07463246002004F16401FFF762
:101EF0005FFFA3689F4203D1E368984200D10025A9
:101F0000284603B0F0BD0B25CAE70C25C8E710250D
:101F1000C6E700BFDC3F0008DC9B0100006400084E
:101F2000089CFFF7E53F0008909B0100EFF3098351
:101F3000EFF30583014B9B6BFEE700BF00ED00E074
:101F400008B5FFF7F3FF0000EFF30983EFF3058314
:101F5000014B5B6BFEE700BF00ED00E0FEE7000019
:101F600001F0ECBC01F098BC0E2815D8DFE800F0B9
:101F7000151515151515151515080A0C0E10120056
:101F80000C207047102070471420704718207047AD
:101F90002020704730207047402070472DE9F043E3
:101FA000456A35B94162BDE8F083CEF800100B6098
:101FB000F9E74E68AE4626F0604CC6F38A4717EA4A
:101FC000260738BF67462B46C6F380785C6894EADC
:101FD000060F24F0604214D5002C08DA920CBA42A5
:101FE00007D19D42E1D10D60DCE71346EEE7BA422E
:101FF00001D0BA42F5D81A689E46002AF5D1196078
:10200000D1E7944505D104F08049C4F38074444578
:1020100002D19445EFD2E4E7B9F1000FEBD0E0E74D
:102020002DE9F0474FF47F49089E01F007054FEA7C
:10203000D6082A4406F0070600EBD101954201D1EB
:10204000BDE8F08705F0070C06F0070AD44567469F
:1020500038BF5746501BC7F10807874228BF0746BD
:10206000EC080C5D08EBD60013F800E004FA0CF461
:1020700029FA07FC24FA0AF45FFA8CFC8EEA0404BD
:102080004CFA0AFC04EA0C048EEA040E03F800E0A1
:102090003D443E44D2E70000082341F2210280EA99
:1020A000012001B24000002980B203F1FF33B8BF24
:1020B000504013F0FF03F4D17047000038B50C46D0
:1020C0008D18A54200D138BD14F8011BFFF7E4FFBD
:1020D000F7E700000346406848B1026899895A60F2
:1020E0005A89013292B291425A8138BF9A8170471F
:1020F00070B504460D4688B0202200216846FFF7DF
:10210000EDFB20460495FFF7E5FF024658B16B460C
:10211000054608AE1C4603CCB442286069602346DD
:1021200005F10805F6D1104608B070BD2DE9F84359
:10213000078C0446072F1ED9D0E9029800254FF6D8
:10214000FF73C5F12006A5F1200029FA05F108FA70
:1021500006F628FA00F031430143C9B21846FFF7EA
:102160009BFF0835402D0346EBD13A46E169BDE8B7
:10217000F843FFF7A3BF4FF6FF70BDE8F8830000F8
:1021800010B54B6823B9CA8A63F30902CA8210BD2D
:1021900004691A681C600361C38A013BC3824A60F8
:1021A000EFE700002DE9F0471C46CB8A8046C3F3D9
:1021B000090005280F46914603462ED000221A3109
:1021C0009DB2042D96B211D8A64203F1010308D3A3
:1021D0000444FB8AC4F3090464F309030120FB826D
:1021E00019E019F802500132CD54E9E7A642EFD2C6
:1021F0001C23A0F1050ABAFBF3F203FB12AA7D68C7
:102200001FFA8AF38DBB4046FFF764FF054630B9DD
:1022100078606FF00200BDE8F0870026E8E7002351
:10222000036078604FF0000AB44223D8FB8A1C4454
:10223000CFE70D46013292B229680029F9D1611F1A
:1022400001441C20B1FBF0F1013189B28A42E9D28C
:10225000BAF1000FE6D14046FFF73CFF38B1C0F8B5
:1022600000A0534628600546DCE70122E4E7C5F8F4
:1022700000A0CEE7291D19F806200136CA549AB2EB
:102280001B2A04D0B2B2A24203F10103F3D3B6B2C7
:10229000B442CBD94046FFF71DFF28B1C0F800A0DB
:1022A000002328600546BFE72860B2E72DE9F74F15
:1022B0001C465B69074688460092002B00F0AE8002
:1022C000238C33B1E269002A00F0A880072B00F2CA
:1022D0009C8007F10C00FFF7FDFE054620B96FF06A
:1022E000020003B0BDE8F08F14220021FFF7F6FAD8
:1022F000228CE16905F10800FFF7E4FA208C013037
:1023000080B208280DD90C2824D9102824D91428E3
:1023100024D9182824D9202824D930288CBF0F206C
:102320000E20FFF721FE013880B22084013028748E
:102330006369228C1B782A4403F01F0363F03F0378
:10234000137248F00043384629466B60FFF726FEBB
:102350000120C6E70920E4E70A20E2E70B20E0E7D6
:102360000C20DEE70D20DCE70198FFF7B3FE834683
:102370000028B4D014220021FFF7B0FA002E35D186
:102380000220009BABF8083002460130218CB1429C
:102390002ED8013880B2013080B2FFF7E5FD228CE3
:1023A0006169B24208BF4FF040090978421E01F04E
:1023B0001F0192B241EA4A110BEB020049EA010106
:1023C0000172013248F00041CBF8041038465946FA
:1023D0008BF81020FFF7E2FD4FF000098AF0010AA8
:1023E0000135238CB342BFD128B27AE70020CBE776
:1023F000E1695A44895D013611720246013081B2A9
:102400000829B6B2C2D10720C5E7002500F10C03A8
:102410004FF08009AA462E460193E2E76FF00100D3
:102420005FE70000F8B51546044630220E4600214D
:102430001F46FFF753FAB5F5001F28BF4FF6FF728E
:10244000069B38BF6A096360079B95B2A760A362C9
:10245000E66104F1100006EB4212964206D1002319
:102460000360A582E3822383E360F8BD0660304603
:102470002036F2E703781BB94BB2002BC8BF0170BE
:102480007047000000787047F8B50C46C9690746E8
:1024900009B9238CB3BB257E1F2D33D83B7823BBD2
:1024A000228C072A2BD8268A032E2BD84FF6FF70B2
:1024B000FFF704FE4FF6FF7220F0010036024004E1
:1024C00046EA0566400C46EA40252346294638463A
:1024D000FFF7ECFE002807DD626913780133DBB2F9
:1024E0001F2B88BF00231370F8BD228A2D0645EAF2
:1024F000022520461D43FFF719FE0246E5E76FF06F
:102500000300F1E76FF00100EEE7000070B504464C
:102510001D4616468AB0282200216846FFF7DEF9DC
:10252000BDF838306946ADF810300F9B2046059352
:102530009DF84030CDE902658DF81830119B079366
:10254000BDF84830ADF82030FFF79EFF0AB070BDEF
:102550002DE9F041D36905460C4616460BB9138C9C
:102560005BBB377E1F2F28D895F80080B8F1000F8D
:1025700026D03046FFF7DAFD3378210241EAC33135
:1025800041EA0801338A41EA076141EA0341024610
:102590003346284641F08001FFF788FE00280ADD17
:1025A0003378012B07D1726913780133DBB21F2B0B
:1025B00088BF00231370BDE8F0816FF00100FAE7D7
:1025C0006FF00300F7E70000F0B504460D461E4625
:1025D00017468BB0282200216846FFF77FF99DF847
:1025E0004C3029465A1E534253418DF800309DF815
:1025F00040306A46ADF81030119B204605939DF897
:102600004830CDE902768DF81830149B0793BDF859
:102610005430ADF82030FFF79BFF0BB0F0BD000049
:10262000406A00B104307047436A1A684262026926
:102630001A600361C38A013BC38270472DE9F843E6
:10264000D0F8209014461E4649464FF00008174F18
:1026500009B9BDE8F883D1E90252651B66EB0202B5
:10266000AF4278EB02021ED2036A8B420DD1FFF714
:1026700087FD036A1B68036203690B60C38A0161FB
:10268000016A013B8946C382E2E7FFF779FD0B68E7
:10269000C9F8003003690B60C38A0161013BC38242
:1026A000D9F80010D4E789460968D1E780841E0074
:1026B0002DE9F04F8BB00D4614468246DDF8508070
:1026C0000393002800F01281B8F1000F00F00E8192
:1026D000531E3F2B00F20A81012A03D1039B002BDA
:1026E00040F004810023BAF814B0CDE90833B5EB0B
:1026F000CB0F4FEACB0703D300200BB0BDE8F08F20
:102700002B199F42DAF80C3036BF7F1B2746FFB2E9
:1027100004931BB9DAF81030002B7FD0272D53D843
:10272000C5F12806B7424FF0000334BF3E46F6B26B
:10273000009329463246DAF8080008ABFFF770FC30
:10274000A7EB060935445FFA89F928210BF1005BF4
:10275000ABF1050B4FEACB0B049B13B1B9F1000FA2
:1027600035D1DAF8100040B1B9F1000F05D04A4672
:10277000009608AB691AFFF753FC38B2002FBBD0A4
:1027800066070AD00AAB03EBD40111F8083C624299
:1027900002F00702134101F8083C012C039B63D0AF
:1027A000082C4AD9102C50D9202C3ED843B1202CCB
:1027B00006D0089A631E22FA03F3DD0700F1908029
:1027C000089BC8F8003098E7B9460026BDE75B468D
:1027D000E02B28BFE02306930B44AB42059315D9A9
:1027E0005A1B914538BF4A46049828BFD2B200967A
:1027F000691A08AB04300792FFF712FC079A1644D7
:102800001544A9EB0202F6B25FFA82F9069B05991C
:10281000ABEB030B049B1B6804939DE700933A46C4
:102820002946DAF8080008ABA5E70BB1402C2BD1FC
:10283000DDE90823C8E900235FE70BB1082C15D1B7
:102840009DF8203088F8003057E743B1102C06D0AF
:10285000BDF82030621E23FA02F2D10739D4BDF848
:102860002030A8F8003048E7002BE9D09DF8203050
:10287000621E23FA02F2D207E2D54FF0FF32A240E5
:1028800013438DF82030DBE7631EC4F12106DDE938
:102890000851A4F1210225FA03F301FA06F63343A5
:1028A00021FA02F21343DB07C2D50123A4F120026F
:1028B000C4F1200603FA02F223FA06F6A3405B42B3
:1028C00042EA060262EB42022B430A43CDE9083298
:1028D000AEE74FF0FF32A2401343ADF82030BEE721
:1028E0004FF0FF33A3401343089369E76FF00100F3
:1028F00003E70000012A30B5144638BF0122002545
:10290000402A28BF402285B0012CCDE9025517D8B6
:102910001B788DF8083053070AD004AB03EBD205BF
:1029200015F8083C544204F00704A34005F8083C9D
:102930000346009102A80021FFF772FB05B030BDED
:10294000082CE5D9102C03D81B88ADF80830E2E735
:10295000202C02D81B680293DDE7D3E90045CDE9BE
:102960000245D8E710B5CB681BB98B600B618B8231
:1029700010BD04691A681C600361C38A013BC382ED
:10298000CA60F0E703064CBFC0F3C03002207047B6
:1029900008B50246FFF7F6FF022806D15306C2F338
:1029A0000F2001D100F0030008BDC2F30740FBE790
:1029B0002DE9F04F95B002920A68044610469A46F7
:1029C000FFF7E0FF02280CBF0026C2F30626002A0C
:1029D0000D46834680F2078212F0C04940F0038220
:1029E000097B002900F0FF81022803D02378B3423D
:1029F00040F0FC81C2F304631046079302F07F03AA
:102A00000493FFF7C5FF049B00224FEA834800238D
:102A100048EA0B48294448EA4668CE78CDE90A23BB
:102A2000F309059048EA0008039300F0A680049B90
:102A30000246009320465B4667680AA9B84700280B
:102A400000F0D781276A002F40F08680414604F1CC
:102A50000C00FFF74DFB0746002800F0F7802762C7
:102A60006B7B06F01F080893BB7ED7E9021209931F
:102A7000FB7DD7F804E0C3F38403A3EB08001FFA3F
:102A800080FC0028B8BF0CF1200C0690A8EB0303D3
:102A9000BCBF0FFA8CF006901FFA83FC002BBCBF62
:102AA0000CF1200C0FFA8CF351EA020C7FD0029843
:102AB000411A8F486AEB020288424FF000009041B1
:102AC00075D3DDE9080C604564D10398002800F057
:102AD00088800698012800F39B81BEF1000F40F02A
:102AE0009781844888427EEB0202C0F08E81B30950
:102AF000022B76D0029B14220021C7E9023A0FA8CC
:102B0000FEF7ECFE029B2046CDE90C3A2B1D0E93FE
:102B10002B7B8DF848B0013BDBB2ADF84430059B10
:102B20008DF84980ADF84630079B0CA98DF84A30E6
:102B3000049B8DF84B3094F82C3083F001038DF812
:102B40004C30A3689847FB7DC3F38403013303F043
:102B50001F039B02FB8228E03B69984580D03F68B9
:102B6000002FF9D1414604F10C00FFF7C1FA0746E6
:102B700000286BD0236A3B6071E7276A27B96FF0A2
:102B80000C0015B0BDE8F08F3B6998453FF468AF85
:102B90003F68F3E7574888424FF0000171EB0202AB
:102BA00003D2039A002A40F047810020E9E7FA7D2A
:102BB000B30002F0030203F07C031343FB753946B4
:102BC0002046FFF7DDFA6B7BBB76039B002B40F0C2
:102BD0002D81FB7DC3F38402013262F38603FB7512
:102BE000CDE7FB7DC6F34012B2EBD31F40F004816A
:102BF000C3F38403434540F00281039A2B7BB6095B
:102C0000002A52D0022E62D1032B40F2FB80029B9D
:102C1000AE1DC7E9023AFB8A32466FF30903FB8215
:102C20002B7B3946033BDBB204F10C00FFF7BAFA09
:102C300000280EDA39462046FFF7A2FAFB7DC3F3DF
:102C40008403013303F01F039B02FB826FF0020039
:102C500097E7AB88DDE90A843B834FF6FF73C9F140
:102C60002000A9F1200228FA09F104FA00F001433A
:102C700024FA02F211431846C9B2FFF70DFA09F11E
:102C80000809B9F1400F0346E9D13146B8822A7BE1
:102C9000033AD2B2FFF712FAFB7DB882DA43C2F3ED
:102CA000C01262F3C713FB757FE786B92E1D013B87
:102CB00032463946DBB204F10C00FFF773FA002804
:102CC000B8DB2A7B3146013AB88AD2B2E2E7F98A08
:102CD000013BC1F309010429DAB207F11B0661D8EF
:102CE00052B9029B0E96CDE90C3A796800231AE09E
:102CF00080841E0040420F000023E81C10F801CF22
:102D0000013306F801C001310529DBB201D09A4236
:102D1000F4D802990E96CDE90C1A93427968E5D25F
:102D20000433DBB22B44CDE90F13FB8A8DF848B096
:102D3000C3F309031A44059BADF84420ADF84630AF
:102D4000079B8DF849808DF84A30049B291D8DF82A
:102D50004B3094F82C3083F001038DF84C30002375
:102D60007B602A7BB88A013AFFF7A8F93B8BB882CF
:102D7000834203D12046A3680CA9984720460CA99A
:102D8000FFF7F0FDFB7DBA8AC3F38403013303F040
:102D90001F039B02FB823B8B9A4214BF6FF0100013
:102DA0000020EEE67B68002BB3D0052001E06346EF
:102DB0001C30D3F800C0BCF1000FF8D1091AC81CB0
:102DC00005F1030C184401EB090EBEF11B0F5FFA6D
:102DD00089F39ED89A429CD91CF8013F09F1010958
:102DE00000F8013FEFE76FF00900CAE66FF00A0054
:102DF000C7E66FF00B00C4E66FF00D00C1E66FF0A0
:102E00000E00BEE66FF00F00BBE60F2B3FF76FAE74
:102E1000FA7DB30002F0030203F07C031343FB7559
:102E200039462046FFF7ACF96B7BBB766A7BBB7EED
:102E30009A427FF4BAAE5AE60F2BE9DDB5E600BF41
:102E4000F0B53F4D3F4EEB6943F00073EB61EB692A
:102E50003D4B9B6AD3F80042344044F00104C3F870
:102E60000042D3F80042344044EA002444F0010414
:102E7000C3F80042002955D000200646C3F81C02C2
:102E8000C3F80402C3F80C02C3F8140203EBC00435
:102E900001300E28C4F84062C4F84462F6D100271D
:102EA0004FF0010C9678148816F0010F18BFD3F874
:102EB00004E20CFA04F01CBF40EA0E0EC3F804E270
:102EC00016F0020F18BFD3F80CE203EBC4041CBFCA
:102ED00040EA0E0EC3F80CE2760748BFD3F814623E
:102EE00007F1010744BF0643C3F814625668B942AC
:102EF000C4F84062966802F10C02C4F84462D3F848
:102F00001C4240EA0400C3F81C02CBD1D3F80022D3
:102F100022F00102C3F80022EB6923F00073EB6199
:102F2000EB69F0BD0122C3F84012C3F84412C3F8A4
:102F30000412C3F81412C3F80C22C3F81C22E5E7EC
:102F4000001002400000FFFFA8230020184A08B527
:102F5000916A8B688B6013F0010104D013F00C0FA1
:102F600018BF4FF48031D80506D513F4406F14BF55
:102F700041F4003141F00201D80306D513F4402F8B
:102F800014BF41F4802141F00401D3690BB108481A
:102F90009847302383F311880021064800F022FB74
:102FA000002383F31188BDE8084000F0A7BD00BFEF
:102FB000A8230020B023002038B5124CA36ADD6896
:102FC000AA0712D05A6922F002025A61A36913B10A
:102FD000012120469847302383F3118800210A48B5
:102FE00000F000FB002383F31188EB0606D51021C7
:102FF000A36AD960236A0BB102489847BDE83840FC
:1030000000F07CBDA8230020B823002038B5124C66
:10301000A36A1D69AA0712D05A6922F010025A61E8
:10302000A36913B1022120469847302383F3118806
:1030300000210A4800F0D6FA002383F31188EB063A
:1030400006D51021A36A1961236A0BB1024898477B
:10305000BDE8384000F052BDA8230020B82300206E
:1030600038B50F4CA36A5D682A075D600AD5042253
:1030700022701A6822F002021A60636A13B10021FA
:10308000204698476B0706D5A36A9969236A13B14E
:10309000034809049847BDE8384000F02FBD00BF41
:1030A000A823002010B50E4C204600F02FF90D4B40
:1030B0000B211320A36200F009F90B21142000F06A
:1030C00005F90B21152000F001F90B21162000F065
:1030D000FDF8BDE8104000220E201146FFF7B0BEFB
:1030E000A8230020006400400F4B10B5984204460E
:1030F00005D10E4BDA6942F00072DA61DB69012218
:10310000A36A1A60A36A5A68D20707D56268516831
:103110001268D9611A60064A5A6110BD012108205F
:1031200000F0B0F9EEE700BFA82300200010024035
:103130005B87010003291AD8DFE801F0020A0F14A7
:10314000836A9B6813F0E05F14BF01200020704782
:10315000836A9868C0F380607047836A9868C0F398
:10316000C0607047836A9868C0F3007070470020A1
:103170007047000010B5032927D8DFE801F00227C7
:103180002B2F836A9968C1F30161183103EB011396
:103190001078840648BF5468C0F3001158BF948863
:1031A0004FEA410148BF41EAC40100F00F005860F6
:1031B00048BF41F00401906858BF41EA4451D268C9
:1031C00041F001019860DA60196010BD836A03F56F
:1031D000C073DDE7836A03F5C873D9E7836A03F533
:1031E000D073D5E701290AD002290FD081B9836AAB
:1031F000DA68920701D1186903E001207047836AF9
:10320000D86810F0030018BF01207047836AF2E706
:103210000020704710B539B9836AD96889071BD176
:103220001B699B0704D110BD012915D00229FAD1D1
:10323000816AD1F8C031D1F8C401D1F8C841146114
:10324000D1F8CC41546120240C610C69A40717D13A
:103250004C6944F0100412E0816AD1F8B031D1F821
:10326000B401D1F8B8411461D1F8BC4154612024B3
:10327000CC60CC68A40703D14C6944F002044C61D3
:10328000C3F34001C3F38004090141EA44111479F6
:1032900024F030042143117189064BBF91681189D4
:1032A000DB085B0D4CBF63F31C0163F30A01137968
:1032B00048BF916060F3030313714FEA10234FEA94
:1032C000104058BF118113705080ACE701220901F2
:1032D00000F1604303F56143C9B283F8001300F0C5
:1032E0001F039A4043099B0003F1604303F56143C8
:1032F000C3F880211A607047090100F16040C9B22B
:1033000000F56D4001767047FFF7CCBE01230370D6
:10331000002300F10802C0E9022200F11002C0E916
:103320000422C0E90633C0E9083343607047000057
:1033300010B53023044683F31188022341600370E3
:10334000FFF7D2FE04230020237080F3118810BD04
:103350002DE9F0411F4604460D461646302383F3FF
:10336000118800F108082378052B0DD02946204646
:10337000FFF7E0FE40B1204632462946FFF7FAFE4D
:10338000002080F3118808E03946404600F01AF921
:103390000028E8D0002383F31188BDE8F081000005
:1033A0002DE9F0411F4604460D461646302383F3AF
:1033B000118800F110082378052B0DD029462046EE
:1033C000FFF710FF40B1204632462946FFF722FFA3
:1033D000002080F3118808E03946404600F0F2F8FA
:1033E0000028E8D0002383F31188BDE8F0810000B5
:1033F00000238268037503691B6899689142FBD2B8
:103400005A68036042601060586070470023826809
:10341000037503691B6899689142FBD85A68036079
:10342000426010605860704708B50846302383F347
:1034300011880B7D032B05D0042B0DD02BB983F302
:10344000118808BD00228B691A604FF0FF33836139
:10345000FFF7CEFF0023F2E7D1E9003213605A6094
:10346000F3E70000FFF7C4BF054BD968087518687B
:10347000026853601A6001220275D860FDF7C2B875
:10348000D824002030B50C4B0446DD684B1C87B0B7
:103490000FD02B466846094A00F0CAF82046FFF7CD
:1034A000E3FF009B13B1684600F0CAF8A86907B0B3
:1034B00030BDFFF7D9FFF9E7D824002029340008F0
:1034C000044B1A68DB6890689B68984294BF0020A0
:1034D00001207047D8240020084B10B51C68D8681C
:1034E000226853601A6001222275DC60FFF78EFFAC
:1034F00001462046BDE81040FDF784B8D8240020DE
:1035000038B501230025064C06490748237065603D
:1035100000F03AFB0223237085F3118838BD00BF09
:1035200030250020F43F0008D824002000F09AB88D
:103530008B60022308618B82084670478368A3F181
:10354000440243F8142C026943F8442C426943F8BE
:10355000402C094A43F8242CC268A3F1200043F808
:10356000182C022203F80C2C002203F80B2C034A1F
:1035700043F8102C704700BF15060008D82400201F
:1035800008B5FFF7DBFFBDE80840FFF76BBF0000A1
:10359000024BDB6898610F20FFF766BFD82400203C
:1035A000302383F31188FFF7F3BF000008B501460D
:1035B000302383F311880820FFF764FF002383F38F
:1035C000118808BD064BDB6839B1426818605A6043
:1035D000136043600420FFF755BF4FF0FF30704782
:1035E000D824002038B504460D462068844200D116
:1035F00038BD036823605C608561FFF733FFF4E743
:1036000010B50A4C23699A6891420CD85A688160B7
:103610000360426010609A685860521A9A604FF0D6
:10362000FF33A36110BD1B68891AECE7D824002082
:10363000C0E90323002310B410BC4361FFF7E0BFCF
:10364000036881689A680A449A60426813605A6005
:1036500000234FF0FF320360014B9A61704700BFB7
:10366000D824002070B5124D2A46EB690133EB6176
:1036700052F8103F934206D030269A68013A9A6079
:103680002C69A36803B170BDD4E900210A605160C0
:10369000236083F311882046D4E90331984786F3E9
:1036A000118861690029EBD02046FFF7A9FFE7E701
:1036B000D8240020054A30B5D369D2E908451B1B40
:1036C000181945F10001C2E9080130BDD8240020D5
:1036D00000207047FEE70000704700004FF0FF3009
:1036E00070470000BFF34F8F024AD368DB07FCD45A
:1036F000704700BF0020024008B5074B1B7853B944
:10370000FFF7F0FF054B1A69120641BF044A5A60E1
:1037100002F188325A6008BD48250020002002408E
:103720002301674508B5054B1B7833B9FFF7DAFF6E
:10373000034A136943F08003136108BD4825002044
:10374000002002407F289ABF00F500308002002050
:10375000704700004FF48060704700008020704781
:103760007F2808B50ED8FFF7EDFF0368013309D1B4
:1037700000F580630430834201D1012008BD026856
:103780000132F7D00020F9E77F2810B504461CD895
:10379000FFF7A8FFFFF7B0FFF3220D4B4FF4806156
:1037A000DA6002221A61FFF7CDFF58611A6942F010
:1037B00040021A61FFF796FF00F028F9FFF7B2FF09
:1037C0002046BDE81040FFF7CBBF002010BD00BF72
:1037D00000200240D3072DE9F041144606D540F2FF
:1037E00003321D4B1A600020BDE8F0811B4B82188C
:1037F0009A4203D94FF44272174BF3E7FFF77CFF6D
:103800004FF00108FFF76EFF154F401A012C0E46CE
:1038100000EB010503D8FFF785FF0120E4E73388BB
:10382000C7F810802B80FFF75DFF00233B612B88DA
:1038300031F8022B9BB29A420CD040F21F32064B59
:103840001A60084B1D60084B1C60084B1E60FFF798
:1038500069FFC8E7023CD9E74425002000000208C0
:1038600000200240402500203C2500203825002073
:10387000084908B50B7828B11BB9FFF73DFF0123B4
:103880000B7008BD002BFCD0BDE808400870FFF7A6
:1038900049BF00BF4825002038B5EFF31185BDBBF7
:1038A000EFF30584C4F308043023C4B183F3118813
:1038B000FFF700FF44014B01241A43EAD06363EB96
:1038C0000103A2009B00121843EA947341EB030129
:1038D000C900D00041EA527185F3118838BD83F3E5
:1038E0001188FFF7E7FE45014B012D1A43EAD0632B
:1038F00063EB0103AA009B00121843EA957341EBA6
:103900000301C900D00041EA527184F3118838BD27
:10391000FFF7D0FE44014B01241A43EAD06363EB66
:103920000103A2009B00121843EA947341EB0301C8
:10393000C900D00041EA527138BD00BF38B5FFF769
:10394000ABFF00230F4A104CC00840EA4170A0FBB7
:10395000025EA0FB040CC9081CEB0500A1FB04459A
:103960005B410019A1FB021043EB050311EB0E01B3
:1039700040F100005B1840F100001B0943EA0070B1
:1039800038BD00BFA59BC420CFF753E310B5094C49
:10399000013AD2B2FF2A00D110BD5308980004307A
:1039A00054F8233000599BB243EA004341F8043BEA
:1039B000EEE700BF046C004030B50748013AD2B2D0
:1039C000FF2A00D130BD0D88540840F82450A300D0
:1039D0004C8804331C50F1E7046C004007B5012209
:1039E000002001A9FFF7D2FF019803B05DF804FBA6
:1039F00013B50446FFF7F2FFA04205D001220020D4
:103A000001A90194FFF7D8FF02B010BD7047000074
:103A100045F25552064B1A6002225A6040F6FF7278
:103A20009A604CF6CC421A600122024B1A70704721
:103A30000030004049250020034B1B781BB14AF69B
:103A4000AA22024B1A60704749250020003000402E
:103A5000044B1A682AB902F1804202F50432526A14
:103A60001A6070474C2500204FF08072014B5A625B
:103A7000704700BF0010024008B5FFF7E9FF024B96
:103A80001868C0F3407008BD4C25002008B5FFF74A
:103A9000DFFF024B1868C0F3007008BD4C25002002
:103AA000EFF30983203383F30988002383F311881C
:103AB00070470000302080F3118862B60C4B0D4A2D
:103AC000D96821F4E0610904090C0A43DA60D3F8EB
:103AD000FC20094942F08072C3F8FC200A6842F0D9
:103AE00001020A602022DA7783F82200704700BFC3
:103AF00000ED00E00003FA05001000E0302310B5EF
:103B000083F311880B4B5B6813F400630FD0EFF362
:103B100009844FF08073203CE36184F30988FFF748
:103B2000CFFC10B1044BA36110BD044BFBE783F342
:103B30001188F9E700ED00E0270600082A060008D2
:103B400070470000FEE700000A4B0B480B4A90420A
:103B50000BD30B4BC11EDA1C121A22F003028B424C
:103B600038BF00220021FDF7B9BE53F8041B40F80E
:103B7000041BECE76C400008D0250020D025002075
:103B8000D0250020FEE7000070B5002504461A4B42
:103B900086B0856201630E465860FFF78BFF04F123
:103BA0001003C4E904334FF0FF33A361134BE56105
:103BB000D9692B460A462046C4E9082304F134019A
:103BC0008023C4E900440E4AA560E5622565FFF73D
:103BD000AFFC01230B4AE0600375009272686846EF
:103BE0000192B268CDE90223074BCDE90435FFF716
:103BF000C7FC06B070BD00BF30250020D8240020CF
:103C00000040000805400008853B000800F030B87F
:103C100008B500F063F9FFF773FCBDE80840FFF753
:103C200017BF0000704700004FF0FF310E4B1A69BC
:103C300019611A6900221A611869D868D960D968AF
:103C4000DA60DA68DA6942F08052DA61DA69DA69F0
:103C500042F00062DA61054ADB69136843F480735D
:103C6000136000F01BB900BF00100240007000405C
:103C7000194B1A6842F001021A601A689007FCD5C5
:103C80001A6802F0F9021A6000225A605A6812F0AB
:103C90000C0FFBD11A6842F480321A601A68910343
:103CA000FCD55A6842F4E8125A601A6842F08072F1
:103CB0001A601A689201FCD51221084A5A60084A13
:103CC00011605A6842F002025A605A6802F00C020F
:103CD000082AFAD1704700BF0010024000641D009E
:103CE00000200240084A08B5516913680B4003F0F0
:103CF0000103536123B1054A13680BB1506898471B
:103D0000BDE80840FFF7FABE00040140502500203E
:103D1000084A08B5516913680B4003F00203536168
:103D200023B1054A93680BB1D0689847BDE80840B5
:103D3000FFF7E4BE0004014050250020084A08B502
:103D4000516913680B4003F00403536123B1054A22
:103D500013690BB150699847BDE80840FFF7CEBE24
:103D60000004014050250020084A08B55169136835
:103D70000B4003F00803536123B1054A93690BB16B
:103D8000D0699847BDE80840FFF7B8BE000401407D
:103D900050250020084A08B5516913680B4003F00C
:103DA0001003536123B1054A136A0BB1506A984757
:103DB000BDE80840FFF7A2BE0004014050250020E6
:103DC000174B10B55A691C68144004F478725A6194
:103DD000A30604D5134A936A0BB1D06A98476006CC
:103DE00004D5104A136B0BB1506B9847210604D5CC
:103DF0000C4A936B0BB1D06B9847E20504D5094A86
:103E0000136C0BB1506C9847A30504D5054A936C0D
:103E10000BB1D06C9847BDE81040FFF76FBE00BFF4
:103E200000040140502500201A4B10B55A691C6847
:103E3000144004F47C425A61620504D5164A136D9D
:103E40000BB1506D9847230504D5134A936D0BB100
:103E5000D06D9847E00404D50F4A136E0BB1506E35
:103E60009847A10404D50C4A936E0BB1D06E9847C5
:103E7000620404D5084A136F0BB1506F98472304AE
:103E800004D5054A936F0BB1D06F9847BDE8104039
:103E9000FFF734BE0004014050250020062108B57C
:103EA0000846FFF713FA06210720FFF70FFA06214D
:103EB0000820FFF70BFA06210920FFF707FA062171
:103EC0000A20FFF703FA06211720FFF7FFF9BDE8E4
:103ED000084006212820FFF7F9B9000008B5FFF7D0
:103EE000A3FE054800F00CF8FFF70EFAFFF79AFE64
:103EF000BDE8084000F002B80C40000800F042B8ED
:103F0000002319461C4A0133102BC2E9001102F1AB
:103F10000802F8D1194B9A6942F07D029A619B69B7
:103F20000268174BDA6082685A6042681A60C26899
:103F300003F58063DA6042695A6002691A60826937
:103F4000C3F80C24026AC3F80424C269C3F800242D
:103F5000426AC3F80C28C26AC3F80428826AC3F80C
:103F60000028026BC3F80C2C826BC3F8042C426B44
:103F7000C3F8002C704700BF5025002000100240FD
:103F8000000801404FF0E023044A08215A61002252
:103F90009A6107220B201A61FFF7AEB93F190100A1
:103FA00008B5302383F31188FFF7C0FA002383F3A9
:103FB000118808BD08B5FFF7F3FFBDE80840FFF71B
:103FC0009DBD00006F72672E6172647570696C6FC1
:103FD000742E663130332D426173650040A2E4F1E6
:103FE000646891060041A3E5F2656992070000004C
:103FF00063300000F03F0008D8230020D8240020C0
:104000006D61696E0069646C650000000018000055
:10401000444441444454494401000000424444445F
:104020004444444400000000444444444444444460
:104030000000000044444444444444440000000060
:104040004444444444444444E80300000000000065
:10405000009C010000000000FE2A0100D2040000C4
:0C406000640000000000000040420F005F
:00000001FF
