:020000040800F2
:1000000000070020F1010008C53500087D35000813
:10001000A53500087D3500089D350008F30100086E
:10002000F3010008F3010008F3010008B9450008D6
:10003000F3010008F3010008F3010008F3010008D0
:10004000F3010008F3010008F3010008F3010008C0
:10005000F3010008F3010008E16A0008096B0008D9
:10006000316B0008596B0008816B0008F301000830
:10007000F3010008F3010008F3010008F301000890
:10008000F3010008F3010008F30100080D35000832
:100090001D35000831350008F3010008A96B000880
:1000A000F3010008F3010008F3010008F301000860
:1000B0007D6C0008F3010008F3010008F30100085B
:1000C000F3010008F3010008F3010008F301000840
:1000D000F3010008F3010008F3010008F301000830
:1000E0000D6C0008F3010008F3010008F30100089B
:1000F000F3010008F3010008F3010008F301000810
:10010000F3010008F3010008F3010008F3010008FF
:10011000F3010008F3010008F3010008F3010008EF
:10012000F3010008F3010008F3010008F3010008DF
:10013000F3010008F3010008F30100084535000849
:100140005535000869350008F3010008FD60000816
:10015000F3010008F3010008F3010008F3010008AF
:10016000F3010008F3010008F3010008F30100089F
:10017000F3010008F3010008F3010008F30100088F
:10018000F3010008F3010008F3010008F30100087F
:10019000F3010008F3010008F3010008F30100086F
:1001A000F3010008F3010008F3010008F30100085F
:1001B000F3010008F3010008F3010008F30100084F
:1001C000F3010008F3010008F3010008F30100083F
:1001D000F3010008F3010008F3010008F30100082F
:1001E000251E0008000000000000000000000000C4
:1001F00002E000F000F8FEE772B6374880F30888A6
:10020000364880F3098836483649086040F20000D5
:10021000CCF200004EF63471CEF200010860BFF35C
:100220004F8FBFF36F8F40F20000C0F2F0004EF628
:100230008851CEF200010860BFF34F8FBFF36F8F7C
:100240004FF00000E1EE100A4EF63C71CEF20001D4
:100250000860062080F31488BFF36F8F05F01AFC46
:1002600006F0E6FA4FF055301F491B4A91423CBF59
:1002700041F8040BFAE71D49184A91423CBF41F886
:10028000040BFAE71A491B4A1B4B9A423EBF51F82E
:10029000040B42F8040BF8E700201849184A914271
:1002A0003CBF41F8040BFAE705F0F8FB06F014FB3D
:1002B000144C154DAC4203DA54F8041B8847F9E797
:1002C00000F072FC114C124DAC4203DA54F8041BDE
:1002D0008847F9E705F0E0BB000700200023002075
:1002E0000000000808ED00E00001002000070020E9
:1002F0001071000800230020B0230020B02300204C
:1003000028670020E0010008E4010008E40100087B
:10031000E40100082DE9F04F2DED108AC1F80CD052
:10032000C3689D46BDEC108ABDE8F08F002383F3BF
:1003300011882846A047002004F0CEFEFEE704F016
:100340004DFE00DFFEE7000008B5062000F0C6FA0B
:10035000012005F02FF800BF10B4044C03460A46F4
:1003600020685DF8044B194605F0A6BA002300206A
:1003700010B5054C34B113460A4601460220AFF3CE
:10038000008010BD204610BD00000000024B014659
:10039000186805F095BA00BF00230020024B014603
:1003A000186805F091BA00BF00230020032A70B539
:1003B00015D940EA010C1CF0030F04460B4621D16D
:1003C000194620460E680568B54204F1040403F19D
:1003D000040317D1043A032A20461946F0D8541EC4
:1003E000A2B100F1FF3C013901E0C3180CD01CF8A8
:1003F00001EF11F8012F9645A4EB0C03F5D0AEEBFD
:10040000020070BD541EECE7184670BD104670BD6A
:100410002DE9F04F012BADF21C4D07468A461546DB
:1004200040F21F814FF00109002448464FF0FF368B
:100430004A4606E0A2EB0609144601202218934220
:100440000FD9A91915F802C0095C8C45F2D300F048
:100450008C804FF00109264648464C4422189342AE
:10046000EFD84FF0010E002470464FF0FF3C72466B
:1004700006E0A2EB0C0E14460120221893420FD97D
:1004800005EB0C0115F80280095C8845F1D872D0A3
:100490004FF0010EA4467046744422189342EFD8E0
:1004A0000CF1010C0136664501D8F146664605AAF5
:1004B0000DF2144142F8043F8A42FBD1002B00F0B8
:1004C000CB805C1E691E05EB040C0DF1180811F8B9
:1004D000010FCA431A442A44614548F82020F6D146
:1004E000324605EB090128460193FFF75FFF019BA8
:1004F000002868D1AAEB0301A3EB0903024602938B
:100500000346701E0590C6F10100CDE903908A46AE
:1005100001950AE022B1039A9142029A38BF11462E
:100520000B4453454FF0000248D807EB030B1BF870
:10053000041058F821100029ECD1B242114638BFFE
:100540003146A1421DD201984D1E05445818384429
:1005500002E00131A14214D210F801CB15F801EFED
:10056000E645F6D0049A1344DAE7814512BF01301C
:100570004C44012062E770450ABF24180130012075
:100580007BE7B242059972D2019D981938443544EF
:1005900002E08A425ED0614610F801CD15F801ED07
:1005A000E64501F1010901F1FF3CF2D001324A4573
:1005B0005BD8039A13445345029AB6D900200DF232
:1005C0001C4DBDE8F08FAAEB030A9B1BB34238BF5A
:1005D00033464FF00009013307EB09000293C6F1DF
:1005E00001030193035D58F8233006F1FF3B4BB143
:1005F0009944D145E2D807EB0900035D58F8233050
:10060000002BF5D1A64213D206EB09023A4405EBC2
:100610000B01334602E00133A34209D212F801CBA9
:1006200011F801EFE645F6D0019A91449944E0E7CC
:10063000002EC4D006EB09013944AA1901E0AB42EF
:10064000BDD012F801ED11F801CDE6451346F6D004
:10065000029BCDE79146A9E74FF0FF340DF1180852
:100660003EE74FF00109002621E75846A7E7B146CB
:100670009CE700BF2DE9F0470446C0B0002B69D0CD
:10068000012B0D4690461F4600F087808B425DD8B7
:10069000CD1A022B00EB050660D0B3F5807F00F287
:1006A000838000214FF4807268465D1E01F020FDBA
:1006B00040460121024643781278A3EBC203DBB225
:1006C00001300DF8031001318D42F3D808EB070318
:1006D0004FF0000A13F8022C18F80530A3EBC20300
:1006E000DBB21DF803900DF80350A5EB0909B442E5
:1006F00001D92BE063B92C44A64214F8013C94F8CC
:1007000000C0ACEBC30C5FFA8CFC1DF80C30F1D2CE
:100710009D42A4EB0304EAD80F2D07D9042208EB6D
:100720000A0104EB0A00FFF741FE60B92A46414680
:100730002046FFF73BFE68B1BAF1030F8CBFAAF168
:10074000040AA7F1050A4C44B442D4D9002040B0B1
:10075000BDE8F087204640B0BDE8F08713785578B3
:10076000017845EA0345034613F8012F9E4242EA09
:1007700001421DD39542EDD0013601E09542E6D00D
:10078000184613F8011FB34241EA0242F6D19542DE
:1007900008BF06F1FF30D9D1D9E711782A4640B019
:1007A000BDE8F04700F0B0B940B0BDE8F0472FE633
:1007B0001E46ECE738B5446C0CB1002038BD8021F2
:1007C000054605F07DF80246686430B1031F7C32AF
:1007D00043F8044F9342FBD1EFE74FF0FF3038BDB1
:1007E0001F29F8B5054608D8466C0C4617464EB189
:1007F00056F8240046F82470F8BD162303604FF025
:10080000FF30F8BD802105F05BF80646686440B112
:10081000031F00F17C05002143F8041F9D42FBD11A
:10082000E6E74FF0FF30F8BD1F2938B5054620D860
:10083000426C0C466AB152F8213053B1012B16D0EC
:10084000591C10D00025204642F8245098472846CD
:1008500038BD284600F0F8F8224601462846BDE893
:10086000384000F0DBB816230360012038BD0020BB
:1008700038BD162303604FF0FF3038BD1F292AD83A
:10088000426C38B50C46054682B152F8243002EB72
:1008900084024BB1591C19D0012B15D000252046DC
:1008A00015609847284638BD012038BD802105F0E5
:1008B00007F80246686458B1031F00217C3043F8F2
:1008C000041F9842FBD1E0E7032038BD022038BD69
:1008D0004FF0FF3038BD4FF0FF30704738B5144B44
:1008E0001F281D681FD86A6C044662B152F8203078
:1008F0004BB1012B15D0591C0FD0002542F82050C8
:100900009847284638BD284600F09EF82246014602
:100910002846BDE8384000F081B816232B6001203E
:1009200038BD002038BD16232B604FF0FF3038BD96
:1009300000230020124B1F2870B51E6808D80D46F2
:10094000716C044649B151F8240041F8245070BD3F
:10095000162333604FF0FF3070BD8021304604F025
:10096000AFFF0146706440B1031F00F17C0C002210
:1009700043F8042F6345FBD1E5E74FF0FF3070BD2E
:100980000023002038B50B4B1D686C6C0CB10020A7
:1009900038BD8021284604F093FF686438B1031FF6
:1009A00000F17C0243F8044F9342FBD1EFE74FF094
:1009B000FF3038BD0023002038B5174B1F281D68B5
:1009C00026D86A6C044682B152F8243002EB8402C5
:1009D0004BB1591C1AD0012B16D0002520461560AA
:1009E0009847284638BD012038BD8021284604F0AC
:1009F00067FF0246686458B1031F00217C3043F84A
:100A0000041F8342FBD1DFE7032038BD022038BD3D
:100A10004FF0FF3038BD00BF0023002070B50C46FA
:100A2000084D03460026204611461C462E6004F061
:100A3000C5FC431C00D070BD2B68002BFBD023608D
:100A400070BD00BFB023002004F0B2BC80EA0102F8
:100A5000844612F0030F4FD111F0030F32D14DF83D
:100A6000044D11F0040F51F8043B0BD0A3F10132F7
:100A70009A4312F0803F04BF4CF8043B51F8043B0A
:100A800016D100BF51F8044BA3F101329A4312F082
:100A9000803FA4F101320BD14CF8043BA24312F089
:100AA000803F04BF51F8043B4CF8044BEAD0234686
:100AB0000CF8013B13F0FF0F4FEA3323F8D15DF838
:100AC000044B704711F0010F06D011F8012B0CF800
:100AD000012B002A08BF704711F0020FBFD031F878
:100AE000022B12F0FF0F16BF2CF8022B8CF80020FF
:100AF00012F47F4FB3D1704711F8012B0CF8012B82
:100B0000002AF9D1704700BF01F0FF01102A2BDB4A
:100B100010F0070F08D010F8013B013A8B422DD09E
:100B200010F0070F42B3F6D1F0B441EA012141EAD7
:100B3000014122F007047FF000070023F0E802568D
:100B4000083C85EA010586EA010685FA47F5A3FA1D
:100B500087F586FA47F6A5FA87F68EB9EED1F0BC8E
:100B600001F0FF0102F0070232B110F8013B013A37
:100B700083EA010313B1F8D10020704701387047B0
:100B8000002D06BF35460338073815F0010F07D191
:100B9000013015F4807F02BF013015F4C03F0130F1
:100BA000F0BC0138704700BFF8B501F0A3F904F0BC
:100BB0000BFF064604F05AFF044678BB224B9E42C8
:100BC0002CD001339E422CD0204B26F0FF029A42BB
:100BD0002AD1F0B200F032FF274642F2107500F041
:100BE00033FF08B100252F4601F068FD00B3032054
:100BF00000F080F824B1164B9E4201D004F02EFF85
:100C0000002004F0EBFE002501F0C8FA00F088FF98
:100C1000284600F0EBF800F083F8F9E727460025B6
:100C2000DDE705460127DAE7074641F28835D6E7D2
:100C300014B1074B9E42E1D1002004F0CFFE002FFB
:100C4000E2D000F06DF8DFE7010007B0000008B067
:100C5000263A09B008B501F021F9A0F12003584265
:100C6000584108BD07B541F21203022101A8ADF8B1
:100C7000043001F02FF903B05DF804FB38B53023E0
:100C800083F31188174803680BB104F0F1FA164A90
:100C9000144800234FF47A7104F0E0FA002383F340
:100CA0001188124C236813B12368013B23606368E9
:100CB00013B16368013B63600D4D2B7833B96368F2
:100CC0007BB9022001F0DAF9322363602B78032B21
:100CD00007D163682BB9022001F0D0F94FF47A7381
:100CE000636038BDC42400207D0C0008B8240020B7
:100CF000C0240020084B187003280CD8DFE800F04F
:100D000008050208022001F0AFB9022001F0A4B9E1
:100D1000024B00225A607047C0240020B8240020F3
:100D200010B501F0CBFC30B1294B03221A70294BCE
:100D300000225A6010BD284B284A1C461968013110
:100D4000F8D004339342F9D16268254B9A42F1D925
:100D5000244B9B6803F1006303F580339A42E9D288
:100D600004F050FE04F062FE002001F0DDF80220E5
:100D7000FFF7C0FF1C4B1A6C00221A64196E1A662A
:100D8000196E596C5A64596E5A665A6E5A6942F015
:100D900080025A615A6922F080025A615A691A69BE
:100DA00042F000521A611A6922F000521A611B695E
:100DB00072B64FF0E0233021C3F8084DD4E9003279
:100DC00081F311889D4683F308881047B2E700BF7E
:100DD000C0240020B82400200000010820000108E1
:100DE000FFFF000864230020003802402DE9F04F87
:100DF00095B0DFF8C8B201902022FF210CA8DBF8E3
:100E0000086001F075F9A84A1378A3B9A748012131
:100E100003601170302383F3118803680BB104F071
:100E200027FAA34AA14800234FF47A7104F016FA76
:100E3000002383F31188019B13B19E4B019A1A6022
:100E40009D4A019D1378032B1EBF00231370994AFE
:100E50004FF0000918BF5360CA464C46C8460120EF
:100E600001F002F925B1934B1B68002B00F00F82B3
:100E7000002001F013F80590059B002B01DA00F02B
:100E8000A1FE059B002BEDDB012001F0E5F8059BA1
:100E9000213B162BE3D801A252F823F0F90E0008EB
:100EA000210F0008AB0F00085F0E00085F0E00085E
:100EB0005F0E00083B100008FF1100081911000820
:100EC0007B110008A3110008C91100085F0E00087B
:100ED000DB1100085F0E00084D120008970F000894
:100EE0005F0E000895120008050F0008970F000814
:100EF0005F0E00087B1100080220FFF7ABFE002800
:100F000040F00781019BB9F1000F08BF1D4641F277
:100F10001233022107A8ADF81C3000F0DBFF3FE0E0
:100F20004FF47A7000F0BAFF071EEBDB0220FFF7E8
:100F300091FE0028E6D0013F052F00F2D381DFE8C3
:100F400007F0030A0D10133105230793042107A8A6
:100F500000F0C0FF17E059480421F9E75848042180
:100F6000F6E758480421F3E74FF01C08404600F02C
:100F7000DDFF08F104080790042107A800F0AAFF8C
:100F8000B8F12C0FF2D10123BB404AEA03035FFA08
:100F900083FA4FF0000801F0F7F89CBBFFF762FE00
:100FA00023469DE148480421D2E7002CAAD00AF04C
:100FB0000B030B2B63D10220FFF74CFE04460028E5
:100FC0005DD0012000F0B0FF0220FFF793FE002764
:100FD0001FFA87F9484600F0B7FF0546D0B9364BEF
:100FE000012202201A7001F037F82E46DBF8083093
:100FF000B3421BD8304B00261E702E4B5E6001F0B2
:10100000C3F8A1460AF00B030B2B4FF0010408BFF5
:101010000025C3E70021484600F0AEFF0137054632
:101020000028D5D1A14641F2121372E7304600F0F4
:101030007DFF0130F6D10436D8E7002C3FF462AFD3
:101040000AF00B030B2B1AD10220FFF753FE3220BC
:1010500000F024FF071E12DB17F003030FD1DBF8AB
:101060000810BA198A420AD8B7F5807F07DC174AF8
:101070009F4206DCC820FFF7EDFD044640BB01247B
:1010800040E74FF47A70CDE9023200F007FF059097
:1010900005990029FFF636AF039A029B059902F8DD
:1010A000011B0133E4E700BFB4240020C424002066
:1010B0007D0C0008B8240020C024002064230020F8
:1010C000682300206C23002070230020B42300201C
:1010D0001F2E11D8C6F12002BA420CAB26F0030035
:1010E00028BF3A4681490292184400F0E1FF029A73
:1010F0007E48FF2100F0FCFFBB107C490293C7F340
:101100008702304600F0FCFF00288CD0029B06EBE3
:10111000830601F039F875E70220FFF79BFD0028F0
:101120003FF4F0AE00F048FF00283FF4EBAE00279C
:101130003B4612E01F2F1AD80C9A013217D027F025
:10114000030250326A4452F8200C079004221846D9
:1011500007A901F06BFA04370346DBF80820BA420E
:10116000E8D80793042107A800F0B4FE13E7384637
:10117000029300F0DBFE029BE7E70023642106A850
:10118000069300F09FFE00287FF4BCAE0220FFF71C
:1011900061FD00283FF4B6AE069800F0F5FE07901A
:1011A000E0E70023642106A8069300F08BFE0028E8
:1011B0007FF4A8AE0220FFF74DFD00283FF4A2AE59
:1011C000069800F0F1FEEAE70220FFF743FD002851
:1011D0003FF498AE00F000FFE1E70220FFF73AFD90
:1011E00000283FF48FAE07A9142000F0FBFE042175
:1011F0000746069006A800F06DFE3946B3E7322098
:1012000000F04CFE071EFFF67DAEBB077FF47AAE02
:10121000DBF8082007EB080393423FF673AE022089
:10122000FFF718FD00283FF46DAE27F00307474491
:10123000B8453FF4B0AE404600F078FE0421079078
:1012400007A800F047FE08F10408F1E74FF47A70B0
:10125000FFF700FD00283FF455AE00F0ADFE00287A
:101260003FF4E1AE0C9B01330CD008220CA9002006
:1012700000F046FF00283FF4D6AE2022FF210CA844
:1012800000F036FFFFF7EEFC194803F02BFF15B016
:10129000BDE8F08F002C3FF435AE0AF00B030B2BAA
:1012A0007FF430AE0023642107A8079300F00AFE04
:1012B000074600287FF426AE0220FFF7CBFC029001
:1012C00000283FF41FAEFFF7CDFC41F2883003F059
:1012D00009FF079800F08AFF00F056FF029B3D4689
:1012E0001C46BCE54FF000080CE600BFB42300200C
:1012F000A0860100094A136849F2690099B21B0CE3
:1013000000FB01331360064B186844F2506182B24F
:10131000000C01FB0200186080B2704778230020A7
:101320007423002010B500211022044600F0E0FED6
:10133000034B03CB206061601868A06010BD00BF44
:10134000107AFF1F70B50D4614461E4602F052FC7F
:1013500020B9022E01D1012C12D070BD282C13D03F
:1013600005D8012C14D0052C16D00020F5E7302C20
:10137000FBD10CA3D3E90023C5E900230120ECE74E
:101380000AA3D3E90023F7E70AA3D3E90023F3E78D
:101390000AA3D3E90023EFE70AA3D3E90023EBE78D
:1013A000AFF3008078F6339F93CACD8D401DA12006
:1013B00026812A0B26417272DF25D7B79E6AC42187
:1013C000818A46EEF017304A39059E562DE9F041E4
:1013D000ADF54E7D00266CAC40F2751207460D4609
:1013E0000EA831460D9600F083FE4FF4C4723146CC
:1013F000204600F07DFE02F0EDF8284B4FF47A72A3
:10140000B0FBF2F0186093E80700022384E80700BD
:101410000DF5E9702382FFF785FF40F62773204919
:10142000238407A8FFF712FB16230DF1340884F874
:1014300032310DF2E32207AB0DF12C0C1E4603CE28
:10144000664510605160334602F10802F6D13068FB
:101450001060B388938041460122204600F0C8FE08
:1014600080B2CDE9048000230393AB7E029305F1A3
:101470001903019301230093E97E06A3D3E9002316
:10148000384602F059FC0DF54E7DBDE8F08100BFF5
:10149000AFF300809E6AC421818A46EE1C2A002098
:1014A000546D00082DE9F0412C4C237ADAB08046C7
:1014B0000D465BBB27A9284600F0BCFF0746002865
:1014C00042D19DF89D60C82E3ED801464FF4A662D9
:1014D000204600F00DFE4FF48073C4F8F8314FF44D
:1014E0000073C4F80C3332464FF440730DF19E0183
:1014F00004F10900C4F82034264400F0D9FD9DF819
:101500009C30777223720BB9EB7E2372812200210B
:1015100006AC27A800F0ECFD0122214627A800F028
:10152000D3FF80B2CDE9044000230393AB7E029346
:1015300005F11903019328230093E97E05A3D3E95C
:101540000023404602F0F8FB5AB0BDE8F08100BF2E
:10155000AFF3008026417272DF25D7B7E424002064
:10156000F0B5254E4FF48A73F1B003FB00650024FB
:1015700096F8D83085F8DC30D02221463CA885F892
:10158000E84000F0B5FD06F1090000F0AFFDD5F828
:10159000E4308DF8F000C2B206AF06F109010DF19A
:1015A000F100CDE93A3400F083FD394601223AA832
:1015B00000F0BEFF80B2CDE9047008230127CDE919
:1015C000023706F1D803019330230093317A0B4898
:1015D00007A3D3E9002302F0AFFBA04206DD01F030
:1015E000F9FFC5F8E000384671B0F0BD2046FBE7D2
:1015F00078F6339F93CACD8DE4240020E45B00206D
:101600002DE9F04F274FDFF8A880274E87B03846E6
:1016100002F0BEFB034600283DD00024CDE9034480
:10162000ADF814401A7B8DF814205868996802941C
:1016300003AA03C21B681D4D43F000430293A14659
:10164000A2462B68D3F810B001F0C6FF10EB0802D9
:1016500041F100032846CDF800A002A9D84740F286
:1016600036430028C8BF49F0010905F586559C425C
:1016700005F1180508D1B9F1000F07D0384602F07E
:101680008BFB86F800A0C2E71C46DAE73378072B0D
:1016900004D80133337007B0BDE8F08F014802F081
:1016A0007BFBF8E7E45B0020E1240020302A0020E7
:1016B00040420F0010B50021044600F05DFC601CA4
:1016C0000B4C80B2A4F82C0500F03EFC70B1B4F8CD
:1016D0002C0500F049FC014640B9B4F82C0500F097
:1016E0004BFCB4F82C05013080B2EBE710BD00BF15
:1016F000E4240020F8B50D4C0D4F0325013D14D016
:10170000A4F5805343F8487C237E3BB966692EB12B
:10171000304601F04DF8304605F000FB2046A4F5B8
:10172000865401F045F8183CE8E7F8BD504B00201E
:10173000FC6D00082DE9F04F8FB000AF05460C4658
:1017400002F058FA002848D1237E022B1AD1E38AEE
:10175000012B17D101F03EFF0646FFF7CBFD4FF4FA
:10176000C873DFF8D082B0FBF3F206F5167602FB01
:10177000130316FA83F3C8F80030E37E33B9A74B9E
:1017800000221A703C37BD46BDE8F08F07F12401F6
:10179000204600F003FE0028F4D107F11400FFF703
:1017A000C1FD97F8264007F11401224607F12700F2
:1017B000FEF7FCFD0028E2D10F2C08D8974B1C70D7
:1017C000D8F80030A3F51673C8F80030DAE797F8B8
:1017D0002410284602F006FAD4E7E38A282B2DD0FD
:1017E00010D8012B25D0052BCCD1BFF34F8F8C49BE
:1017F0008C4BCA6802F4E0621343CB60BFF34F8F97
:1018000000BFFDE7302BBDD1DFF82CB2E17E9BF8A5
:1018100008209142B6D1607E5946002291F8DC50F2
:10182000854200F0A9800132042A01F58A71F5D1C0
:10183000A8E721462846FFF7C9FDA3E72146284629
:10184000FFF730FE9EE7B2F8EC507B60EA1C93088D
:1018500022F003020732D208BB60A8EBC2039D4608
:10186000BB68EA469A000021504600F041FC7B68C4
:1018700003F1EE012A465944504600F019FC14B910
:10188000012000F051FB9BF8D20000F05DFB044604
:1018900038B98BF8080000F08FFB204600F044FBBD
:1018A000B4E0DBF8D4203AB99BF8D200BBF82C2581
:1018B000824201D8FFF7FEFEDBF8D4202A4494428E
:1018C00008D29BF8D200BBF82C250130824201D807
:1018D000FFF7F0FE3A7ADBF80400514600F010FC06
:1018E00008B9C5467BE0DBF804209BF8D2002A4407
:1018F000CBF80420DBF8D42005EB020ACBF8D4A007
:1019000000F022FB824509D39BF8D22001328BF8EC
:10191000D220DBF8D420121BCBF8D420FF2D10D816
:1019200000248BF8084000F047FB204600F0FCFA4A
:1019300000F0C4FE3C4B188108B9FFF7F1F9C54629
:1019400020E7FB689BF8D90009FB03B2D2F8E4104A
:1019500082F8E86001F58061C2F8E060C2F8E41046
:10196000FFF7FEFDFFF74CFE9BF8D920013202F095
:1019700003028BF8D920B4E74FF48A7909FB02F50A
:1019800005F1EA015944204600F006FE064600280B
:101990007FF4F8AE5D44012285F8E82001F01AFEDC
:1019A000D5F8E020DBED007ADFED206A801A1928F7
:1019B00038BF192040F6B832904228BF1046B8EE22
:1019C000677A07EE900AF8EEE77A67EEA67ADFED1F
:1019D000186AE7EE267AFCEEE77ACBED007A9BF800
:1019E000D930FB6009FB03F30BEB0302DBF80400C7
:1019F00092F8E81059B1D2F8E4408442E8463FF446
:101A000022AF002182F8E810C2F8E010C546DBF8EA
:101A10000430054A9B0A01331381B3E6142A0020DF
:101A200000ED00E00400FA051C2A0020CDCCCC3DDE
:101A30006666663F182A0020E4240020014B1870D7
:101A4000704700BFE04B002030B54FF000542B4BE7
:101A500022689A4285B007D004F012F8044620BBF1
:101A60000024204605B030BD254B627D25481A7004
:101A7000237D03724FF48073C0F8F8314FF4007384
:101A8000C0F80C3300254FF44073C0F820341E49D1
:101A9000C0F8E450C922093000F00AFB2046E022D9
:101AA000294600F025FB0124DBE7184A184D136C8A
:101AB00043F000731364AA6D164B9A42D0D12B6E7B
:101AC000013B7E2BCCD8144A07CA01AB83E8070040
:101AD0001846032100F0C0FD6B6D83424FF00003F8
:101AE000BED12A6D8A4201BFAB65054B2A6E1A70C2
:101AF00003BF0A4BEA6D1A601C46B2E79AAD44C5B3
:101B0000E04B0020E42400201600002000380240B2
:101B1000006600405041A0B0586600407C23002081
:101B200037B500F0CBFD1D4D1D4C288102232168E7
:101B30001C486B71012201F0D3FB1B48216850F84F
:101B4000D83F01225B68984700230193174B18493F
:101B500000931848184B4FF4805202F01BF8174BB3
:101B6000197811B1134802F03DF801F033FD044635
:101B7000FFF7C0FB4FF4C87304F51674B0FBF3F223
:101B800002FB13000E4B14FA80F0186003F06EFF96
:101B900008B10F232B8103B030BD00BF1C2A0020E9
:101BA0007C230020302A0020303A00204513000812
:101BB000E44B0020E45B002035170008E04B0020D8
:101BC000182A00202DE9F04F2DED028BDFF85092FE
:101BD00093B00BAF0025FFF713FD0A95ADF8345015
:101BE0000B957D609FED7F8B4FF00008834CDFF8F5
:101BF00010B2464601238DF81C3023688DF81D5025
:101C00008DED008B0DF11D02D3F808A007A900236C
:101C10002046D0479DF81CA0BAF1000F24D0D9F877
:101C2000143083F08003C9F81430102200210EA86C
:101C300000F05EFA236808AA5E690AA90DF11E0386
:101C40002046B04797E803000FAB83E803009DF8F8
:101C500034308DF844300A9B0E930EA9DDE9082339
:101C6000584602F05BFA564640F2364304F5865475
:101C7000984504F1180440F0A080002EB2D16048CD
:101C800001F0B8FF00283ED15E4D01F0A3FC2B68A7
:101C9000984238D301F09EFC0446FFF72BFB4FF42B
:101CA000C87304F51674B0FBF3F202FB130014FAC8
:101CB00080F02860544D2F78B7FA87F3C7F11004ED
:101CC000E4B25B090EA88DF82830FFF72BFB062C39
:101CD00028BF06240EAB2246D9190DF1290000F0C9
:101CE000E7F90AAB0393182302930134474B01939E
:101CF000E4B201230093424804943CA3D3E90023B7
:101D000001F0BCFF2E7001F065FC414A414C1368A4
:101D1000C31AB3F57A7F2FD3106001F05DFC024641
:101D20000B46374802F042F8354801F063FF18B31C
:101D3000237A394D002B0CBF022303236B7101F072
:101D400049FC0EAE4FF47A730122B0FBF3F031463A
:101D50002860284600F0FAFA182302932F4B0193CB
:101D600080B240F25513CDE903600093244821A3CB
:101D7000D3E9002301F082FF237A93B101F02AFC1A
:101D8000002506464FF48A7794F8D900284400F0DD
:101D9000030007FB004393F8E82082B10135042DCE
:101DA000F2D1C82003F09EF9237A002B7FF411AF03
:101DB00013B0BDEC028BBDE8F08F98461AE7D3F85C
:101DC000E02042B12368FA2B38BFFA23B21A053358
:101DD000B2EB430FE2D3FFF7C3FB0028DED1E0E70D
:101DE000AFF300800000000000000000401DA120B3
:101DF00026812A0BF1C6A7C1D068080F302A00201F
:101E0000E45B0020182A0020142A0020282A002041
:101E1000DC240020E42400201C2A0020E0240020F0
:101E20000004024008B5064800F0C2FF054800F073
:101E3000BFFFBDE80840044A0449002004F068BF21
:101E4000302A0020083B0020505C0020F5160008D6
:101E500070B50F4B1B780133DBB2012B05460C46E6
:101E600010D80C4801684FF47A730E6AA2FB033253
:101E700029462246B047844204D1074B00221A70FB
:101E8000012070BD4FF4FA7003F02CF90020F8E740
:101E90008023002058610020445C002007B5002307
:101EA000024601210DF107008DF80730FFF7D0FF42
:101EB00020B19DF8070003B05DF804FB4FF0FF3040
:101EC000F9E7000008B50A460421FFF7C1FF013811
:101ED00008BD000030B4054604480368DC69044BC3
:101EE0000A46A446294630BC604700BF586100201E
:101EF000A086010070B503F00FFC094E094C30803C
:101F0000002520683388834208D903F0FFFB23684B
:101F100005440133B5F5803F2360F2D370BD00BFA7
:101F20003C5C0020405C002003F0A0BC00F100609D
:101F300000F580300068704700F10060920000F505
:101F4000803003F02FBC0000054B1A68054B1B883E
:101F50009B1A834202D9104403F0D8BB002070477B
:101F6000405C00203C5C0020024B1B68184403F0DE
:101F7000D5BB00BF405C0020024B1B68184403F037
:101F8000E5BB00BF405C0020034610F0030009D110
:101F9000B3F5047F07D203F10053A3F51043D3F840
:101FA000000870470020704700F10050A0F5104075
:101FB000D0F8100A70470000064991F8243033B178
:101FC0000023086A81F824300822FFF7B5BF0120FA
:101FD000704700BF145C0020014B1868704700BFB9
:101FE000002004E070B5194B194A1D68431EC5F363
:101FF0000B040B442D0C0520013808D199420846EA
:1020000010D3144A0624013C15D1401A70BD16881D
:10201000A6420ED152680846013A9842F1D212F90E
:10202000014F1CB92C2200F8012BEAE700F8014B04
:10203000F3E70832E0E71688AE4204D198423CBF8D
:10204000967800F8016B0432DDE700BF002004E061
:10205000AC6D00086C6D0008022802BF014B8022A5
:102060009A61704700040240022802BF024B4FF4FD
:1020700000029A61704700BF00040240022801BFBD
:10208000024A536983F080035361704700040240A1
:1020900070B504464FF47A7604B970BD412C2546DC
:1020A00028BF412506FB05F003F01CF8641BF3E78D
:1020B00010B50023934200D110BDCC5CC454013351
:1020C000F8E7000010B5013810F9013F3BB191F974
:1020D00000409C4203D11AB10131013AF4E71AB130
:1020E00091F90020981A10BD1046FCE7FFF7FEBFDB
:1020F00002440346934200D1704703F8011BF9E7FD
:102100002DE9F8431F4D144695F8242007468846CC
:1021100022B9DFF870906CB9012009E02B6A03EB5B
:1021200082038342F5D0FFF747FF0028F1D100205A
:10213000BDE8F88395F824302BB92022FF214846CA
:102140002F62FFF7D5FF95F82400C0F10802A242E4
:1021500028BF2246D6B24146920005EB8000FFF729
:10216000A7FF95F82430A41B1E44F6B2082E17448E
:102170009044E4B285F82460CDD1FFF71DFF00281C
:10218000C9D1D4E7145C0020024B1A78024B1A70B4
:10219000704700BF445C00208023002038B5104DFC
:1021A000104C284602F0F6FA2146284602F01EFBA3
:1021B0002468626DD2F8043843F00203C2F8043890
:1021C0004FF47A70FFF764FF0749204602F012FCD3
:1021D000626DD2F8043823F00203C2F8043838BD27
:1021E00058610020BC6E0008C46E000870470000F3
:1021F0002DE9F8430D46044600219046284640F25A
:102200007912FFF775FF234620220021284601F0AE
:1022100027FF231D02222021284601F021FF631DF4
:1022200003222221284601F01BFFA31D03222521A2
:10223000284601F015FF04F1080310222821284642
:1022400001F00EFF04F1100308223821284601F0A6
:1022500007FF04F1110308224021284601F000FF86
:1022600004F1120308224821284601F0F9FE04F186
:10227000140320225021284601F0F2FE04F1180335
:1022800040227021284601F0EBFE04F120030822D1
:10229000B021284601F0E4FE04F121030822B82110
:1022A000284601F0DDFE04F12207C0263B463146F8
:1022B00008222846083601F0D3FEB6F5A07F07F1C4
:1022C0000107F3D1314604F132030822284601F018
:1022D000C7FE94F83260002704F13309F900BE42CA
:1022E00001F5A4711ED8F70007F5A476B8F1000F28
:1022F00008D1314604F599730722284601F0B0FE53
:1023000007F24F1694F83271502F28BF502704EB74
:102310000709B046A1450DD106EBC7000730C0083C
:10232000BDE8F88309EB07030822284601F098FE70
:102330000137D3E704F2331341460822284601F05F
:102340008FFE08F108080134E4E7000038B50C46B8
:102350000021054621600346C4F8031020462022D0
:1023600001F07EFE2B1D20460222202101F078FE86
:102370006B1D20460322222101F072FEAB1D204678
:102380000322252101F06CFE204605F108031022EE
:10239000282101F065FE072038BD0000F7B5047F55
:1023A00005460E462CB1838A122B02D9012003B0B8
:1023B000F0BD0023194607220096284601F030FDA3
:1023C000731C0093012200230721284601F028FDF9
:1023D000D4B9B31C0093052223460821284601F0F6
:1023E0001FFD0D24B378102BE0D83746B278BB1B05
:1023F000934210D32A7FAB8A0734E408B2B99C42D7
:1024000094BF00200120D2E7AB8ADB00083BDB0849
:10241000B3700824E6E7FB1C009321460023082242
:10242000284601F0FDFC08340137DFE7E01A18BF49
:102430000120BCE7F7B5047F05460E460CBB2346DA
:1024400000910822214601F0EBFC731C0822009346
:1024500011462346284601F0E3FC10247378C82B6C
:1024600012D8012372785F1C013B93421CD32A7F50
:10247000AB8AE01DC00812BB984294BF0020012027
:1024800003E0838ACA2B02D9012003B0F0BD0023E8
:1024900000910822194601F0C3FCAB8ADB00083B1F
:1024A000DB0873700824D9E7F31900932146002351
:1024B0000822284601F0B4FC08343B46D2E7C01A93
:1024C00018BF0120E1E700002DE9F8430E4604465D
:1024D0001546002181223046FFF70AFE23460822D6
:1024E0000021304601F0BCFDADB9631C0722082174
:1024F000304601F0B5FD0F2567787F2F28BF7F2775
:1025000004EB0709A8464C4507D105EBC700073087
:10251000C008BDE8F8830825EEE7A31C4146082261
:10252000304601F09DFD08F108080134EBE700009A
:102530002DE9F0410D46044616460021CE222846DC
:10254000FFF7D6FD234628220021284601F088FD0A
:10255000C6B904F1080308222821284601F080FDAD
:10256000302614F8088FB8F1C80F28BF4FF0C808FC
:102570000027B84506EBC70106D806EBC800C0081F
:10258000BDE8F0812826ECE70137E3190822284648
:1025900001F066FDEDE70000F7B5047F06460D4645
:1025A0000CBB009101232146102201F039FCAB1C29
:1025B0000093092223461021304601F031FC1924F2
:1025C0006B88B3F5807F12D82F466A887B1B9342B5
:1025D0001DD3327FB38AE01DC0081ABB984294BF56
:1025E0000020012004E0838AB3F5827F02D9012014
:1025F00003B0F0BD009101231022002101F010FC76
:10260000B38ADB00103BDB086B801024D8E73B1D4E
:102610000093214600230822304601F001FC0834D3
:102620000137D2E7C01A18BF0120E1E730B5094DE4
:102630000A44914200D130BD11F8013B58400823B3
:1026400040F30004013B2C4013F0FF0384EA5000E8
:10265000F6D1EEE72083B8EDF7B54FF0FF33DFF8A2
:1026600054C0DFF854E000EB81061946B04203D1B4
:10267000D843C94303B0F0BD50F8042B019201AF19
:10268000042217F8014B81EA04610824DB180D4687
:1026900004F1FF344941002DBCBF83EA0C0381EAF9
:1026A0000E0114F0FF04F1D1013A12F0FF02E8D15B
:1026B000DCE700BF9336EAA9EBE1F042F7B5364A12
:1026C000106851686B4603C36A463449344808238E
:1026D000FDF7D0FF044618B30369B3F5702F54D843
:1026E000418B42F20F72914251D12E4A024402F1C3
:1026F00010018B424DD3103B294900209D1AFFF752
:1027000095FF2A46064604F118010020FFF78EFFC8
:10271000A3689E4202D1E368984232D00D2500E0C2
:102720000A25214A106851686B4603C36A461F494F
:102730001B480823FDF79EFF044618B30369B3F551
:10274000702F1FD8B0F8661042F20F72914219D163
:10275000144A024402F15C018B4213D35C3B1049E2
:1027600000209E1AFFF762FF3246074604F164011B
:102770000020FFF75BFFA3689F4203D1E368984204
:1027800000D10025284603B0F0BD0B25C9E70C2574
:10279000C7E71025C5E700BFCC6D0008DCFF0E00C1
:1027A000000001080800FFF7D56D000890FF0E003B
:1027B00010B5037C044613B90068FDF7EFFD204611
:1027C00010BD00000023BFF35B8FC360BFF35B8FBE
:1027D000BFF35B8F8360BFF35B8F7047BFF35B8F8B
:1027E0000068BFF35B8F704770B505460C30FFF78C
:1027F000F5FF05F1080604463046FFF7EFFFA0425B
:1028000006D930466D68FFF7E9FF2544281A70BDE8
:102810003046FFF7E3FF201AF9E7000070B50546E0
:10282000406898B105F10800FFF7D8FF05F10C06E4
:1028300004463046FFF7D2FF8442304694BF6D68AD
:102840000025FFF7CBFF013C2C44201A70BD00008F
:1028500038B50C460546FFF7C7FFA04210D305F177
:102860000800FFF7BBFF6B68BFF35B8F0444B4FB4A
:10287000F3F203FB1244AC600120BFF35B8F38BD61
:102880000020FCE72DE9F041144607460D46FFF70E
:10289000C5FF844228BF0446D4B1B84658F80C6B33
:1028A0004046FFF79BFF06442E6040467E68FFF7D8
:1028B00095FF331A9C4203D86C600120BDE8F0817B
:1028C0006B60A61B3B68AB603044E8600220F5E714
:1028D0002046F3E738B50C460546FFF79FFFA042B8
:1028E00010D305F10C00FFF779FF6B68BFF35B8F26
:1028F0000444B4FBF3F203FB1244EC600120BFF389
:102900005B8F38BD0020FCE72DE9F04385B0884699
:1029100069460746FFF7B6FF6C4606B204EBC606EB
:102920000025B44207D129463846FFF7D3FF284691
:1029300005B0BDE8F083D4F8049054F8080B08EB18
:1029400005014A46FFF7B4FB4D44EAE7F8B50546F2
:102950000C300F46FFF742FF05F1080604463046EB
:10296000FFF73CFFA042304688BF6C68FFF736FF98
:10297000201A386020B130462C68FFF72FFF204422
:10298000F8BD000073B5144606460D46FFF72CFF50
:10299000844228BF04460190DCB101A93046FFF70C
:1029A000D5FF019B3BB93268C5E90233C5E9002474
:1029B000012002B070BDA34288BF0194019B286032
:1029C000A3426B60F4D23268AA60E41AEC60022081
:1029D000EFE72046EDE700002DE9FF410F4669468D
:1029E000FFF7D0FF6C4605B204EBC5050026AC42EC
:1029F00003D1304604B0BDE8F081D4F8048054F827
:102A0000081BB8194246FFF753FB4644EFE70000A6
:102A100038B50546FFF7E0FF044601462846FFF7B4
:102A200017FF204638BD000010B4026854681A46EB
:102A300023465DF8044B184700207047002070477C
:102A400070470000002070470E20704700F580504E
:102A500090F8C800C0F340007047000000F58050B7
:102A600090F9D0007047000000F58050C0F8CC10FD
:102A700001207047F7B50C68BDF8207014F00054C1
:102A800070D10D7B082D6DD8302585F311884569EF
:102A9000AE6876010CD4AC68240108D4AC6814F09C
:102AA00080545DD184F31188204603B0F0BD012429
:102AB0000E6804F1180C002EB8BFF6004FEA0C1C8B
:102AC000B4BF46F00406760545F80C600E680FFAB0
:102AD00084FC16F0804F18BF05EB0C1E05EB0C1C98
:102AE0001EBFDEF8806146F00206CEF880610E7BE4
:102AF000CCF8846105EB04158E68C5F88C614E68CE
:102B0000C5F88861DCF8805145F00105CCF88051AA
:102B100000EB441641F268052E4405EB44150544CC
:102B2000C6E9002308350E4601F10C0C56F804EBFB
:102B300045F804EB6645F9D1843436882E8000EBE5
:102B4000441407F00305267926F00B06354325715A
:102B5000002484F31188009700F05EFD0120A4E7B3
:102B60000224A5E74FF0FF309FE7000038B500F5DD
:102B700080540D46E06DFFF751FE1F2809D9E06D26
:102B800020222946FFF7C0FEA0F1200358425841F9
:102B900038BD0020FCE7000008B5302383F311881E
:102BA00000F58050C06DFFF70DFE002383F3118800
:102BB00008BD00000022026082814260826070478E
:102BC00010B500220023C0E900230023044603813E
:102BD0000C30FFF7EFFF204610BD0000F0B50546B2
:102BE00000F580500C4690F8C83013F0040FC3F382
:102BF000800108BF114661F3820304F1840680F866
:102C0000C83005EB461389B01B79D8072ED57AB3A7
:102C100019072DD46846FFF7D3FF05EB441303F5DE
:102C2000835303F1180703AA103318685968144630
:102C300003C40833BB422246F7D1186820609B8842
:102C4000A380DDE90E23CDE900230123ADF8083090
:102C50002B686946DB6B2846984705EB46152B79B0
:102C60001A075CBF43F008032B7101E0002AF4D17E
:102C700009B0F0BD2DE9F0479A4688B0074688466E
:102C80009146302383F3118807F580546846FFF797
:102C900097FFE06DFFF7A8FD1F282AD9E06D2022DD
:102CA0006946FFF7B5FE202823D103AD444605ABA6
:102CB0002E4603CE9E4220606160354604F1080432
:102CC000F6D130682060B388A380DDE90023C9E92C
:102CD0000023BDF80830AAF80030002383F31188E0
:102CE00053464A464146384608B0BDE8F04700F032
:102CF00081BC002080F3118808B0BDE8F087000097
:102D00002DE9F84F0023C0E90133264B044640F873
:102D1000183B0F46FFF74EFF04F12800FFF750FF66
:102D200004F1480804F582554646083530462036F9
:102D3000FFF746FFAE42F9D104F580554FF48053BA
:102D40004FF00009C5E91339C5F848800123EE6545
:102D500004F5865804F58356C5F8549085F8583024
:102D600085F86030103608F110084FF0000A4FF077
:102D7000000B46E902AB3046FFF71CFF203646F851
:102D8000109C4645F5D1012F85F8D07002D9064830
:102D900000F01AFC054B53F8273063612046BDE86C
:102DA000F88F00BFFC6D0008E06D0008506E000851
:102DB00010B5044B197804464A1C1A70FFF7A0FF9F
:102DC000204610BD455C00202DE9F04711B90020D8
:102DD000BDE8F087274B284EB6FBF1F499428CBF33
:102DE0000A231123013BDBB2581CB4FBF0FC00FBAF
:102DF0001C405FFA83FEC0BB0CF1FF37B7F5806F54
:102E0000E5D2C3EBC303D81C4FEAE009C0F3C70007
:102E1000AEEB000809F1010A4FF47A755FFA88F405
:102E200009FB05555AFA88F8B5FBF8F5B5F5617F49
:102E3000C1BF03F1FF33C3F3C700AEEB0003DCB245
:102E4000431C54FA83F30CFB03F3B6FBF3F68E42F8
:102E5000BDD1013CE4B2072CB9D801380023D070B1
:102E60001780937014710120B2E7BEF1020FAED04B
:102E7000013BB9E73F420F0080DE800270B5054696
:102E80000E464FF47A746B695B6803F00103B3423A
:102E900007D04FF47A7002F025F9013CF3D12046B7
:102EA00070BD0120FCE7000010B54269936913F082
:102EB000700F16D00023936103F1840200EB4212DD
:102EC00011794C070AD5890708D5064C416954F891
:102ED00023408C60117941F0040111710133032BFF
:102EE000EAD110BD3C6E000873B51D464369164615
:102EF0009A68D207044609D59A6801219960C2F3FD
:102F00004002CDE900650021FFF768FE63699A6819
:102F1000D1050BD59A684FF480719960C2F34022B5
:102F2000CDE9006501212046FFF758FE63699A68E4
:102F3000D2030BD59A684FF480319960C2F34042B6
:102F4000CDE9006502212046FFF748FE04F58053D5
:102F5000D3F8CC0010B103681B699847204602B033
:102F6000BDE87040FFF7A0BF0C4B10B51C561B5CB2
:102F7000012B11D800F030FB02460B4652EA030148
:102F800002D0013A63F10003054951F8240018B159
:102F9000BDE81040FFF7A8BF10BD00BF486E000895
:102FA000485C0020F8B504464669002972D106F154
:102FB0000C073868800770D006EB01153868D5F823
:102FC000B00110F0040FD5F8B0011ABFC00840F0EE
:102FD0000040400DA061D5F8B0C11CF0020F1CBF2D
:102FE00040F08040A061D5F8B40106EB011100F07B
:102FF0000F0084F82400D1F8B8012077D1F8B80187
:10300000000A6077D1F8B801000CA077D1F8B801B8
:10301000000EE077D1F8BC0184F82000D1F8BC01A3
:10302000000A84F82100D1F8BC01000C84F82200C9
:10303000D1F8BC11090E84F823103821396004F14D
:10304000340004F1180104F1240551F8046B40F830
:10305000046BA942F9D109880180C4E90A232146F9
:103060000023238651F8283B2046DB6B984704F564
:10307000805393F8C820D3F8CC0042F0040283F8C0
:10308000C82010B103681B6998472046BDE8F84086
:10309000FFF70ABF06F110078BE7F8BD0D4B70B5BF
:1030A0001D561B5C012B0C4612D800F095FA024607
:1030B0000B4652EA030102D0013A63F100030649CC
:1030C00051F8250020B12146BDE87040FFF76ABFE6
:1030D00070BD00BF486E0008485C0020F0B530218C
:1030E00081F3118800F583510831002404F184052F
:1030F00000EB45152E7977070FD4F6060DD5D1E9EB
:10310000007697429E4108D2084F466957F82470CE
:10311000B7602E7946F004062E710134032C01F1BC
:103120002001E3D1002383F31188F0BD3C6E000839
:1031300008B5302383F31188FFF7B6FE002383F32D
:10314000118808BDF8B543690546986800F0E0505D
:10315000B0F1E05F0F4621D0B0B1302383F3118886
:1031600005F583541034002606F1840305EB431360
:103170001B791A0709D50136032E04F12004F3D177
:103180000120002383F31188F8BD5B07F3D42146A7
:10319000384600F07BFA0028EDD1F2E70120F3E792
:1031A00008B5302383F3118800F58050C06DFFF718
:1031B0001BFB002383F3118840090CBF0120184634
:1031C00008BD0000F8B51D46002313700F460646E3
:1031D0001446FFF7E5FF80F00100387025B129465D
:1031E0003046FFF7AFFF2070F8BD0000F8B50C4681
:1031F00015461E46074600F0EFF90B4621780246B9
:1032000009B9287850B13846FFF768FFFFF790FFFB
:1032100033462A462146FFF7D5FF0120F8BD0000BE
:1032200038B5302383F3118800F580542A4D94F883
:10323000D030EB5CE3B1012B28D0002383F311885D
:1032400094F8C830DB0712D489B1302383F3118896
:1032500094F8D030EB5C33B3012B31D094F8C83004
:1032600043F0010384F8C830002383F3118838BD8C
:103270001A4B1A6C42F000721A641A6A42F0007219
:103280001A621A6A22F000721A62D6E7134B1A6C9D
:1032900042F080621A641A6A42F080621A621A6A04
:1032A00022F08062F0E70321132001F0E3F903210B
:1032B000142001F0DFF90321152001F0DBF9CDE73F
:1032C00003213F2001F0D6F90321402001F0D2F97B
:1032D00003214120F1E700BF4C6E00080038024096
:1032E0002DE9F04700F5805588B095F8D030022BD5
:1032F00004468846164679D8DFF80C9259F8232000
:103300000AB949F82300D9F800A0C4F80C80267443
:10331000BAF1000F0BD141F2D80003F001FD0746CE
:10332000002861D05146FFF7EBFCC9F8007095F812
:10333000D030012B5ED001212046FFF771FF3023F2
:1033400083F311886269136823F0020313606269D2
:10335000136843F001031360636900275F6187F31B
:10336000118801212046FFF789FD002800F08480A4
:10337000E86DFFF727FA04F5835909F108092022BF
:1033800000216846FEF7B4FE02A8FFF713FC6A4668
:1033900009EB07030DF1180E9446BCE80300F44551
:1033A00018605960624603F10803F5D1DCF80000AB
:1033B000186020379CF804201A71602FDFD195F82F
:1033C000C8306FF3820385F8C83000276A4641464B
:1033D000204600978DF80470FFF7F6FC6369F8B992
:1033E0004FF400421A6001E0C9F80000002008B064
:1033F000BDE8F087D9F8000003681B6B98470146C9
:10340000002898D1D9F80000FFF70AFFD9F800008A
:10341000036832465B684146984700288BD1E5E750
:1034200061221A609DF802309DF8032061691B0635
:10343000120402F4702203F040731343BDF800201D
:10344000C2F3090213439DF80420120502F4E002BE
:103450001343B21E5642564143EAC673CB616369B9
:1034600013225A616269136823F00103136039461D
:103470002046FFF703FD08B96369B1E795F8D0204E
:10348000002A39D16169D1F8003243F00103C1F853
:1034900000326169D1F8003223F47C5323F00E032B
:1034A000C1F800326169D1F8003243F46063C1F8B9
:1034B00000326369C3F814226369C3F804226369A4
:1034C0006FF07841C3F80C126369C3F84022636956
:1034D000C3F844226369C3F8B0226369C3F8B42215
:1034E000636944F20102C3F81C226269D2F8003217
:1034F00023F00103C2F8003295F8C83043F002030C
:1035000085F8C83073E700BF485C002008B500208C
:10351000FFF72AFDBDE8084001F082B808B5002198
:103520000846FFF7BBFDBDE8084001F079B8000090
:1035300008B501210020FFF7B1FDBDE8084001F00A
:103540006FB8000008B50120FFF70EFDBDE8084088
:1035500001F066B808B500210120FFF79FFDBDE826
:10356000084001F05DB8000008B501210846FFF7EA
:1035700095FDBDE8084001F053B8000000B59BB0D0
:10358000EFF3098168226846FEF792FDEFF30583A9
:10359000014B9B6BFEE700BF00ED00E008B5FFF7B5
:1035A000EDFF000000B59BB0EFF30981682268468B
:1035B000FEF77EFDEFF30583014B5B6BFEE700BF7B
:1035C00000ED00E0FEE700000FB408B5029801F03E
:1035D0002FFDFEE702F098B902F07AB913B56C46F8
:1035E00084E80600031D94E8030083E80500012039
:1035F00002B010BDF8B586680D4656B11B885B0752
:1036000007D4D0E900379B6B98472A46C1B23846A9
:10361000B0470120F8BD0000F0B5866889B00546C6
:103620000C465EB1BDF8383047685B0709D40368C3
:103630009B6B98472246C1B23846B047012009B07B
:10364000F0BD00220023CDE900230023ADF80830AF
:103650000A4603AB01F10806106851681C4603C412
:103660000832B2422346F7D1106820609288A280C7
:10367000FFF7B2FF0423ADF808302B68CDE9000155
:10368000DB6B694628469847D8E7000010B5036809
:10369000086893EA000F23F0604420F060420DD5E3
:1036A000002BB8BFA40C0028B8BF920C944201D1E3
:1036B000C00F10BD34BF01200020FAE7944205D1AD
:1036C000C0F38070C3F380738342F2D194422CBF65
:1036D00000200120EDE700000E2815D8DFE800F0FB
:1036E000151515151515151515080A0C0E101200CF
:1036F0000C20704710207047142070471820704726
:103700002020704730207047402070472DE9F0435B
:10371000456A35B94162BDE8F083CEF800100B6010
:10372000F9E74E6826F0604CC6F38A47C6F3807806
:1037300017EA260738BF6746AE462B465C6894EA10
:10374000060F24F0604214D5002C08DA920CBA421D
:1037500007D19D42E1D10D60DCE71346EEE7BA42A6
:1037600001D0BA42F5D81A689E46002AF5D11960F0
:10377000D1E7944505D104F08049C4F380744445F1
:1037800002D19445EFD2E4E7B9F1000FEBD0E0E7C6
:103790002DE9F047089E01F007054FEAD6082A44B4
:1037A00006F0070600EBD1014FF47F49954201D1A5
:1037B000BDE8F08705F0070C06F0070AD445674618
:1037C00038BF5746C7F10807501BEC08874228BF8F
:1037D00007460C5D08EBD60004FA0CF413F800E081
:1037E00029FA07FC24FA0AF45FFA8CFC8EEA040436
:1037F0004CFA0AFC04EA0C048EEA040E03F800E01A
:103800003D443E44D2E7000080EA0120082341F213
:10381000210201B24000002980B203F1FF33B8BF9A
:10382000504013F0FF03F4D17047000038B50C4648
:103830008D18A54200D138BD14F8011BFFF7E4FF35
:10384000F7E700000346406848B102685A605A89A9
:103850009989013292B291425A8138BF9A81704758
:1038600070B588B0202204460D4668460021FEF758
:103870003FFC20460495FFF7E5FF024658B16B4632
:10388000054608AE1C4603CCB44228606960234656
:1038900005F10805F6D1104608B070BD2DE9F843D2
:1038A000078C072F04461ED9D0E9029800254FF651
:1038B000FF73C5F12006A5F1200029FA05F108FAE9
:1038C00006F628FA00F031430143C9B21846FFF763
:1038D0009BFF0835402D0346EBD1E1693A46BDE830
:1038E000F843FFF7A3BF4FF6FF70BDE8F883000071
:1038F00010B54B6823B9CA8A63F30902CA8210BDA6
:1039000004691A681C600361C38A013BC3824A6070
:10391000EFE700002DE9F0471C46CB8A8046C3F351
:10392000090005280F46914603462ED000221A3181
:103930009DB2042D96B211D8A64203F1010308D31B
:103940000444FB8AC4F3090464F30903FB820120E5
:1039500019E019F80250CD540132E9E7A642EFD23E
:103960001C23A0F1050A7D68BAFBF3F203FB12AA3F
:103970001FFA8AF38DBB4046FFF764FF054630B956
:1039800078606FF00200BDE8F0870026E8E70023CA
:10399000036078604FF0000AB44223D8FB8A1C44CD
:1039A000CFE7013292B20D4629680029F9D1611F93
:1039B00001441C20B1FBF0F1013189B28A42E9D205
:1039C000BAF1000FE6D14046FFF73CFF38B1C0F82E
:1039D00000A0534628600546DCE70122E4E7C5F86D
:1039E00000A0CEE7291D19F80620CA549AB21B2A56
:1039F00006F1010604D0B2B2A24203F10103F2D3F0
:103A0000B6B2B442CAD94046FFF71CFF28B1C0F88D
:103A100000A0002328600546BEE72860B1E700004B
:103A20002DE9F74F1C465B69009207468846002B3C
:103A300000F0AC80238C33B1E269002A00F0A6804C
:103A4000072B00F29A8007F10C00FFF7FBFE0546FA
:103A500020B96FF0020003B0BDE8F08F14220021FE
:103A6000FEF746FB228CE16905F10800FEF720FB1A
:103A7000208C013080B208280DD90C2824D91028B8
:103A800024D9142824D9182824D9202824D9302826
:103A90008CBF0F200E20FFF71FFE013880B220845C
:103AA000013028746369228C1B782A4403F01F03B9
:103AB00063F03F03137248F0004338466B602946B9
:103AC000FFF724FE0120C6E70920E4E70A20E2E729
:103AD0000B20E0E70C20DEE70D20DCE70198FFF784
:103AE000B1FE83460028B4D014220021FEF700FB6B
:103AF000A6BB009BABF80830022002460130218CA7
:103B0000B1422DD8013880B2228C013080B2FFF74B
:103B1000E3FDB24208BF4FF04009626912780138F4
:103B200002F01F021BFA80F142EA4A1249EA02023D
:103B30000A72013048F000428BF81000CBF80420E4
:103B400059463846FFF7E2FD8AF0010A01354FF089
:103B50000009238CB342C1D128B27CE70020CCE716
:103B6000E1695A44895D11720246013081B2013621
:103B70000829B6B2C3D10720C6E7002500F10C031F
:103B80004FF08009AA462E460193E2E76FF001004C
:103B900061E70000F8B515460E46302200210446C4
:103BA0001F46FEF7A5FAB5F5001F069B636034BFFC
:103BB0006A094FF6FF72079BA76095B2A362E661A0
:103BC00004F1100006EB4212964206D10023036076
:103BD000A582E3822383E360F8BD06603046203689
:103BE000F2E7000003781BB94BB2002BC8BF01708D
:103BF0007047000000787047F8B50C46C969074661
:103C000009B9238CB3BB257E1F2D33D83B7823BB4A
:103C1000228C072A2BD8268A032E2BD84FF6FF702A
:103C2000FFF704FE20F001003602400446EA056674
:103C3000400C46EA40254FF6FF7223462946384697
:103C4000FFF7EEFE002807DD626913780133DBB26F
:103C50001F2B88BF00231370F8BD228A2D0645EA6A
:103C6000022520461D43FFF719FE0246E5E76FF0E7
:103C70000300F1E76FF00100EEE7000070B58AB0D5
:103C8000044616460021282268461D46FEF730FAF3
:103C9000BDF83830ADF810300F9B05939DF84030DB
:103CA0008DF81830119B07936946BDF84830ADF880
:103CB00020302046CDE90265FFF79EFF0AB070BDB7
:103CC0002DE9F041D36905460C4616460BB9138C15
:103CD0005BBB377E1F2F28D895F80080B8F1000F06
:103CE00026D03046FFF7DAFD3378210241EAC331AE
:103CF00041EA0801338A41EA076141EA0341024689
:103D0000334641F080012846FFF78AFE00280ADD8D
:103D10003378012B07D1726913780133DBB21F2B83
:103D200088BF00231370BDE8F0816FF00100FAE74F
:103D30006FF00300F7E70000F0B58BB004460D46C6
:103D400017460021282268461E46FEF7D1F99DF845
:103D50004C305A1E534253418DF800309DF840308C
:103D6000ADF81030119B05939DF848308DF8183050
:103D7000149B07936A46BDF85430ADF820302946AD
:103D80002046CDE90276FFF79BFF0BB0F0BD0000A7
:103D9000406A00B104307047436A1A68426202699F
:103DA0001A600361C38A013BC38270472DE9F8435F
:103DB000D0F82090194F14461E4649464FF000088F
:103DC00009B9BDE8F883D1E90252651B66EB02022E
:103DD000AF4278EB02021ED2036A8B420DD1FFF78D
:103DE00087FD036A1B68036203690B60C38A016174
:103DF000016A013BC3828946E2E7FFF779FD0B6860
:103E0000C9F8003003690B60C38A0161013BC382BA
:103E1000D9F80010D4E789460968D1E780841E00EC
:103E20002DE9F04F8BB00D46DDF85080039314461A
:103E30008246002800F01181B8F1000F00F00D81DA
:103E4000531E3F2B00F20981012A03D1039B002B53
:103E500040F00381BAF814B00023B5EBCB0FCDE9E5
:103E600008334FEACB0703D300200BB0BDE8F08F37
:103E70002B199F42DAF80C3004933ABF7F1BFFB234
:103E800027461BB9DAF81030002B7ED0272D53D8E7
:103E9000C5F12806B7424FF000032CBFF6B23E46EC
:103EA00000932946DAF8080008AB3246FFF770FCA9
:103EB000A7EB060935445FFA89F90BF1005BABF11A
:103EC000050B4FEACB0B2821049B13B1B9F1000F6E
:103ED00035D1DAF8100040B1B9F1000F05D00096E5
:103EE00008AB4A46691AFFF753FC38B2002FBBD023
:103EF00066070AD00AAB03EBD401624211F8083C12
:103F000002F00702134101F8083C012C039B62D028
:103F1000082C49D9102C4FD9202C3DD843B1202C46
:103F200006D0089A631E22FA03F3DD0700F18F80A2
:103F3000089BC8F8003098E7B9460026BDE75B4605
:103F4000E02B28BFE02306930B44AB42059314D922
:103F50005A1B04980096914534BF4A46D2B2691A5A
:103F600008AB04300792FFF713FC079A1644154478
:103F7000A9EB0202F6B25FFA82F9069B0599ABEB58
:103F8000030B049B1B6804939EE70093DAF8080078
:103F900008AB3A462946A6E70BB1402C2BD1DDE908
:103FA0000823C8E9002360E70BB1082C15D19DF860
:103FB000203088F8003058E743B1102C06D0BDF807
:103FC0002030621E23FA02F2D10739D4BDF8203026
:103FD000A8F8003049E7002BE9D09DF82030621E98
:103FE00023FA02F2D207E2D54FF0FF32A240134388
:103FF0008DF82030DBE7DDE90851631EC4F12106AE
:10400000A4F1210225FA03F301FA06F6334321FA5B
:1040100002F21343DB07C2D50123A4F12002C4F14D
:10402000200603FA02F223FA06F6A3405B4242EAB4
:10403000060262EB42022B430A43CDE90832AEE7A7
:104040004FF0FF32A2401343ADF82030BEE74FF0EF
:10405000FF33A340134308936AE76FF0010004E7BE
:1040600030B5012A144638BF0122402A85B028BF46
:1040700040220025012CCDE9025517D81B788DF878
:10408000083053070AD004AB03EBD205544215F8AD
:10409000083C04F00704A34005F8083C00910346DF
:1040A000002102A8FFF774FB05B030BD082CE5D94C
:1040B000102C03D81B88ADF80830E2E7202C8DBF08
:1040C000D3E900451B680293CDE90245D9E700001A
:1040D00010B5CB681BB98B600B618B8210BD046976
:1040E0001A681C600361C38A013BC382CA60F0E79F
:1040F00003064CBFC0F3C0300220704708B502462B
:10410000FFF7F6FF022806D15306C2F30F2001D1B4
:1041100000F0030008BDC2F30740FBE72DE9F04FB4
:1041200097B0044603920A6810469A46FFF7E0FFEC
:10413000022814BFC2F306260026002A0D46834635
:1041400080F20B8212F0C04940F00782097B0029FF
:1041500000F00382022803D02378B34240F00082AB
:10416000C2F304630993104602F07F030593FFF73F
:10417000C5FF059B06904FEA8348294448EA0B484F
:1041800048EA4668CE7800230022CDE90C23F309E3
:1041900048EA0008049300F0AC80059B00930246B7
:1041A00067685B460CA92046B847002800F0DB8111
:1041B000276A002F40F08B80414604F10C00FFF786
:1041C0004FFB0746002800F0FB8027626B7B0A93B9
:1041D000BB7E0B93FB7DD7F804E006F01F08C3F30A
:1041E0008403A3EB08001FFA80FC0028B8BF0CF181
:1041F000200C0890A8EB0303B8BF0FFA8CF0D7E9A6
:1042000002121FFA83FCB8BF0890002BB8BF0CF154
:10421000200C0793BCBF0FFA8CF3079351EA020CF2
:104220007FD00398411A8F486AEB02024FF0000CCE
:1042300088427CEB020374D3DDE90A03984265D11E
:10424000049B002B00F08780089B012B00F39B81CF
:10425000BEF1000F40F09781834888427EEB020256
:10426000C0F08D81B309022B75D0039B1422C7E9DE
:10427000023A002111A8FDF73BFF039B8DF850B0D7
:10428000CDE90E3A2B1D10932B7B8DF85180013B0D
:10429000DBB2ADF84C30069BADF84E30099B8DF883
:1042A0005230059B8DF8533094F82C3083F0010385
:1042B0008DF854300EA9A36820469847FB7DC3F3C0
:1042C0008403013303F01F039B02FB8227E03B6959
:1042D00098453FF47BAF3F68002FF8D1414604F189
:1042E0000C00FFF7BDFA0746002869D0236A3B603F
:1042F0006BE7276A27B96FF00C0017B0BDE8F08FA5
:104300003B6998453FF462AF3F68F3E756488842FF
:104310007CEB020203D2049B002B40F0488100207A
:10432000EBE7FA7DB30002F0030203F07C031343D2
:10433000FB7539462046FFF7DBFA6B7BBB76049BA7
:10434000002B40F02E81FB7DC3F38402013262F327
:104350008603FB75CFE7FB7DC6F34012B2EBD31F9C
:1043600040F00481C3F38403434540F00281049A82
:104370002B7BB609002A52D0022E62D1032B40F2C9
:10438000FB80039BC7E9023AFB8A6FF30903FB82B8
:104390002B7BAE1D033BDBB23246394604F10C00E9
:1043A000FFF7B8FA00280EDA39462046FFF7A0FAE0
:1043B000FB7DC3F38403013303F01F039B02FB82E5
:1043C0006FF0020099E7DDE90C84AB883B834FF680
:1043D000FF73C9F12000A9F1200228FA09F104FABB
:1043E00000F0014324FA02F211431846C9B2FFF764
:1043F0000BFA09F10809B9F1400F0346E9D1B88277
:104400002A7B033AD2B23146FFF710FAFB7DB8821D
:10441000DA43C2F3C01262F3C713FB757FE786B9B4
:104420002E1D013BDBB23246394604F10C00FFF78A
:1044300071FA0028B8DB2A7BB88A013AD2B2314639
:10444000E2E7F98AC1F30901013B0429DAB207F175
:104450001B0661D852B9039B1096CDE90E3A7968D4
:1044600000231AE080841E0040420F00E81C002355
:1044700010F801CF06F801C0013101330529DBB284
:1044800001D09A42F4D803991096CDE90E1A9342BE
:104490007968E5D2043355FA83F3CDE91113FB8A29
:1044A0008DF850B0C3F309031A44069BADF84E30A3
:1044B000099B8DF85230059B8DF8533094F82C30C1
:1044C000ADF84C2083F001038DF8543000238DF8B3
:1044D00051807B602A7BB88A013A291DFFF7A6F933
:1044E0003B8BB882834203D1A3680EA9204698472C
:1044F00020460EA9FFF7ECFDFB7DBA8AC3F38403C7
:10450000013303F01F039B02FB823B8B9A4214BFD3
:104510006FF010000020F0E67B68002BB3D0052080
:1045200001E01C306346D3F800C0BCF1000FF8D1A5
:10453000091AC81C05F1030C184401EB090EBEF161
:104540001B0F5FFA89F39ED89A429CD91CF8013F51
:1045500000F8013F09F10109EFE76FF00900CCE62F
:104560006FF00A00C9E66FF00B00C6E66FF00D00B1
:10457000C3E66FF00E00C0E66FF00F00BDE6079BCC
:104580000F2B3FF76FAEFA7DB30002F0030203F08A
:104590007C031343FB7539462046FFF7A9F96B7B73
:1045A000BB766A7BBB7E9A427FF4B9AE5AE6079B24
:1045B0000F2BE8DDB3E600BFEFF3098305494A6B33
:1045C00022F001024A63683383F30988002383F3EE
:1045D0001188704700EF00E0302080F3118862B648
:1045E0000C4B0D4AD96821F4E0610904090C0A4317
:1045F000DA60D3F8FC20094942F08072C3F8FC204D
:104600000A6842F001020A602022DA7783F8220069
:10461000704700BF00ED00E00003FA05001000E065
:1046200010B5302383F311880E4B5B6813F40063DD
:1046300014D0F1EE103AEFF30984683C4FF0807328
:10464000E361094BDB6B236684F3098800F0BAFC55
:1046500010B1064BA36110BD054BFBE783F3118836
:10466000F9E700BF00ED00E000EF00E03F030008C5
:104670004203000800F1604303F561430901C9B238
:1046800083F80013012200F01F039A4043099B00A6
:1046900003F1604303F56143C3F880211A6070475A
:1046A000026843680A43026003B11847704700007C
:1046B00013B5446BD4F894341A681178042915D1D1
:1046C000217C022912D11979128901238B401342CE
:1046D0000CD101A904F14C0001F068FFD4F8944416
:1046E000019B21790246206800F0CEF902B010BD8E
:1046F000143001F0F1BE00004FF0FF33143001F030
:10470000EBBE00004C3001F0BDBF00004FF0FF33A6
:104710004C3001F0B7BF0000143001F0BFBE000004
:104720004FF0FF31143001F0B9BE00004C3001F001
:1047300089BF00004FF0FF324C3001F083BF000012
:104740000020704710B5D0F894341A681178042905
:10475000044617D1017C022914D1597952890123C9
:104760008B4013420ED1143001F052FE024648B184
:10477000D4F894044FF4807341790068BDE8104088
:1047800000F070B910BD0000406BFFF7DBBF000008
:10479000704700007FB5124B036000234360C0E9FF
:1047A0000233012502260F4B057404460290019343
:1047B00000F18402294600964FF48073143001F012
:1047C00003FE094B0294CDE9006304F523724FF414
:1047D0008073294604F14C0001F0C4FE04B070BDA2
:1047E000586E000889470008B14600080B6830225F
:1047F00082F311880A7903EB820290614A790932C7
:1048000043F822008A7912B103EB820398610223F4
:10481000C0F894140374002080F3118870470000DE
:1048200038B5037F044613B190F85430ABB9201D5E
:1048300001250221FFF734FF04F1140025776FF002
:10484000010100F077FC84F8545004F14C006FF043
:104850000101BDE8384000F06DBC38BD10B5012144
:1048600004460430FFF71CFF0023237784F85430FC
:1048700010BD000038B504460025143001F0BCFD21
:1048800004F14C00257701F085FE201D84F854507A
:104890000121FFF705FF2046BDE83840FFF752BF72
:1048A00090F8443003F06003202B05D190F8453098
:1048B000212B03D81F2B0BD800207047222BFBD1B4
:1048C00000231A46C0E90E3200230364012070471A
:1048D000014B0722F6E700BF8123002037B5D0F84F
:1048E00094341A681178042904461AD1017C0229EB
:1048F00017D11979128901238B40134211D100F18C
:104900004C05284601F004FF58B101A9284601F0E2
:104910004DFED4F89444019B21790246206800F0B2
:10492000B3F803B030BD000000EB8103F7B59E691A
:1049300004460D46F6B1302383F3118804EB850756
:10494000301D0821FFF7ACFEFB685B691B684C3625
:1049500013B1304601F038FE01A9304601F026FEC1
:10496000024648B1019B2946204600F08DF80023FD
:1049700083F3118803B0F0BDFB685A691268002AFE
:10498000F5D01B8A013B1340F1D104F14402EAE760
:10499000093138B550F82140DCB1302383F3118858
:1049A000D4F894241368527903EB8203DB689B6983
:1049B0005D6845B104216018FFF772FE294604F1D5
:1049C000140001F02FFD2046FFF7BCFE002383F307
:1049D000118838BD7047000001F0B4B8012303709E
:1049E0000023C0E90133C36183620362C36243628F
:1049F0000363704738B50446302383F311880025DC
:104A0000C0E90355C0E90555416001F0ABF8022348
:104A1000237085F31188284638BD000070B500EB7F
:104A2000810305465069DA600E46144618B110221B
:104A30000021FDF75DFBA06918B110220021FDF7F0
:104A400057FB31462846BDE8704001F055B90000DB
:104A5000826802F0011282600022C0E904228261B1
:104A600001F0D4B9F0B400EB81044789E468012572
:104A7000A4698D403D43458123600023A2606360AB
:104A8000F0BC01F0EFB90000F0B400EB810407893D
:104A9000E468012564698D403D430581236000235E
:104AA000A2606360F0BC01F067BA000070B5022339
:104AB000002504460370C0E90255C0E90455C564E9
:104AC000856180F8345001F0B3F863681B6823B146
:104AD00029462046BDE87040184770BD0378052B75
:104AE00010B504460AD080F850300523037043689F
:104AF0001B680BB1042198470023A36010BD000080
:104B00000178052906D190F85020436802701B688F
:104B100003B118477047000070B590F83430044670
:104B200013B1002380F8343004F14402204601F030
:104B30008FF963689B68B3B994F8443013F060054B
:104B400035D00021204601F021FC0021204601F053
:104B500013FC63681B6813B106212046984706239F
:104B600084F8343070BD204698470028E4D0B4F86B
:104B70004A30E26B9A4288BFE36394F94430E56BB4
:104B8000002B4FF0300380F20381002D00F0F28003
:104B9000092284F8342083F311880021D4E90E23FC
:104BA0002046FFF771FF002383F31188DAE794F8BA
:104BB000452003F07F0343EA022340F2023293428E
:104BC00000F0C58021D8B3F5807F48D00DD8012BE7
:104BD0003FD0022B00F09380002BB2D104F14C02A5
:104BE000A2630222E2632364C1E7B3F5817F00F090
:104BF0009B80B3F5407FA4D194F84630012BA0D11F
:104C0000B4F84C3043F0020332E0B3F5006F4DD0FE
:104C100017D8B3F5A06F31D0A3F5C063012B90D89E
:104C2000636894F846205E6894F84710B4F84830FA
:104C30002046B047002884D04368A3630368E36339
:104C40001AE0B3F5106F36D040F6024293427FF47B
:104C500078AF5C4BA3630223E3630023C3E794F8BC
:104C60004630012B7FF46DAFB4F84C3023F00203D3
:104C7000C4E90E55A4F84C30256478E7B4F8443004
:104C8000B3F5A06F0ED194F8463084F84E3020462C
:104C900001F026F863681B6813B10121204698478C
:104CA000032323700023C4E90E339CE704F14F0370
:104CB000A3630123C3E72378042B10D1302383F3AC
:104CC00011882046FFF7C4FE85F31188032163682D
:104CD00084F84F5021701B680BB12046984794F818
:104CE0004630002BDED084F84F30042323706368F5
:104CF0001B68002BD6D0022120469847D2E794F8B3
:104D000048301D0603F00F0120460AD501F092F845
:104D1000012804D002287FF414AF2B4B9AE72B4BC9
:104D200098E701F079F8F3E794F84630002B7FF428
:104D300008AF94F8483013F00F01B3D01A0620469C
:104D400002D501F037FBADE701F02AFBAAE794F8A2
:104D50004630002B7FF4F5AE94F8483013F00F0185
:104D6000A0D01B06204602D501F010FB9AE701F007
:104D700003FB97E7142284F8342083F311882B4631
:104D80002A4629462046FFF76DFE85F31188E9E69D
:104D90005DB1152284F8342083F311880021D4E911
:104DA0000E232046FFF75EFEFDE60B2284F834203A
:104DB00083F311882B462A4629462046FFF764FED6
:104DC000E3E700BF886E0008846E0008806E00086C
:104DD00038B590F834300446002B3ED0063BDAB2AA
:104DE0000F2A34D80F2B32D8DFE803F037313108DF
:104DF000223231313131313131313737C56BB0F891
:104E00004A309D4214D2C3681B8AB5FBF3F203FB00
:104E100012556DB9302383F311882B462A46294653
:104E2000FFF732FE85F311880A2384F834300EE050
:104E3000142384F83430302383F3118800231A4676
:104E400019462046FFF70EFE002383F3118838BD74
:104E5000036C03B198470023E7E70021204601F0E7
:104E600095FA0021204601F087FA63681B6813B1A8
:104E70000621204698470623D7E7000010B590F892
:104E80003430142B044629D017D8062B05D001D86E
:104E90001BB110BD093B022BFBD80021204601F0BD
:104EA00075FA0021204601F067FA63681B6813B1A8
:104EB000062120469847062319E0152BE9D10B233C
:104EC00080F83430302383F3118800231A461946C2
:104ED000FFF7DAFD002383F31188DAE7C3689B69E3
:104EE0005B68002BD5D1036C03B19847002384F88D
:104EF0003430CEE700230375826803691B68996824
:104F00009142FBD25A68036042601060586070475B
:104F100000230375826803691B6899689142FBD876
:104F20005A680360426010605860704708B50846D0
:104F3000302383F311880B7D032B05D0042B0DD078
:104F40002BB983F3118808BD8B6900221A604FF0DA
:104F5000FF338361FFF7CEFF0023F2E7D1E9003290
:104F600013605A60F3E70000FFF7C4BF054BD96830
:104F70000875186802681A60536001220275D860CB
:104F8000FBF7C8B9685E002030B50C4BDD684B1CE0
:104F900087B004460FD02B46094A684600F05EF9F8
:104FA0002046FFF7E3FF009B13B1684600F060F96D
:104FB000A86907B030BDFFF7D9FFF9E7685E0020A8
:104FC0002D4F0008044B1A68DB6890689B68984274
:104FD00094BF002001207047685E0020084B10B588
:104FE0001C68D86822681A60536001222275DC6050
:104FF000FFF78EFF01462046BDE81040FBF78AB957
:10500000685E002038B5074C074908480123002591
:105010002370656001F0B4FB0223237085F31188CF
:1050200038BD00BFC05E0020906E0008685E0020A2
:1050300008B572B6044B186500F02CFC00F0E0FCDB
:10504000024B03221A70FEE7685E0020C05E00205B
:1050500000F044B9034A516853685B1A9842FBD880
:10506000704700BF001000E08B60022308618B8254
:10507000084670478368A3F1840243F8142C026940
:1050800043F8442C426943F8402C094A43F8242C45
:10509000C26843F8182C022203F80C2C002203F8F3
:1050A0000B2C044A43F8102CA3F12000704700BFDA
:1050B0002D030008685E002008B5FFF7DBFFBDE8A0
:1050C0000840FFF751BF0000024BDB6898610F20DA
:1050D000FFF74CBF685E0020302383F31188FFF791
:1050E000F3BF000008B50146302383F31188082080
:1050F000FFF74AFF002383F3118808BD064BDB68E6
:1051000039B1426818605A60136043600420FFF7A9
:105110003BBF4FF0FF307047685E002003460068D9
:10512000834205D002681A6053608161FFF71CBF9B
:105130007047000038B504460D462068844200D10F
:1051400038BD036823605C608561FFF70DFFF4E7FD
:1051500010B503689C68A2420CD85C688A600B603A
:105160004C60216059609968891A99604FF0FF334B
:10517000836010BD1B68121BECE700000A2938BFD2
:105180000A2170B504460D460A26601901F0F2FAAC
:1051900001F0DEFA041BA54203D8751C2E46044616
:1051A000F3E70A2E04D9BDE87040012001F028BBC6
:1051B00070BD0000F8B5144B1446D961826003F14C
:1051C000100242600A2C1A69026038BF0A2450603B
:1051D000186108190D4601F0BFFA0A2701F0B8FA64
:1051E000431BA342064606D37C1C281901F0C2FAD1
:1051F00027463546F2E70A2F04D9BDE8F8400120DA
:1052000001F0FEBAF8BD00BF685E002070B50D4623
:10521000064601F09DFA0F490B4653F8102F9A42AB
:1052200006D12A4601463046BDE87040FFF7C2BFAE
:10523000CB69C41A2C19936828BF2C46A34202D903
:105240002946FFF79BFF224631460348BDE87040E0
:10525000FFF77EBF685E0020785E002010B4C0E9D2
:10526000032300235DF8044B4361FFF7CFBF000029
:1052700010B5194C236998420DD0D0E900328168ED
:1052800013605A609A680A449A60002303604FF0E2
:10529000FF33A36110BD2346026843F8102F53600B
:1052A0000022026022699A4203D1BDE8104001F059
:1052B0005BBA936881680B44936001F049FA2269F4
:1052C000E1699268441AA242E4D91144BDE8104051
:1052D000091AFFF753BF00BF685E00202DE9F047B1
:1052E000294E06F11008294F356901F031FAF469A9
:1052F000AA68011B8A423AD81444D5E90032F46105
:1053000013605A6000232B603269BA42994601D17A
:1053100001F02AFA89F31188D5E903312846984724
:10532000302383F311886B69002BDDD001F010FA74
:105330006A69A0EB040A524581460BD2022001F0B3
:105340005FFA3369BB4210D0524629464046FFF708
:10535000FFFEC8E73369BB42F7D12244121A49461F
:105360002846BDE8F047FFF725BF0022F7E731697F
:10537000B94207D01444211AF061A960BDE8F04792
:10538000FFF7FCBEBDE8F087685E0020785E002075
:1053900038B501F0DDF9054AD2E90845031B1819B3
:1053A00045F10001C2E9080138BD00BF685E002078
:1053B00000207047FEE70000704700004FF0FF300C
:1053C0007047000002290CD0032904D001290748A6
:1053D00018BF00207047032A05D8054800EBC2001B
:1053E0007047044870470020704700BF6C6F00088A
:1053F00088230020206F000870B59AB00546084643
:1054000001A9144600F0BEF801A8FCF76FFE431C8A
:105410005B00C5E900340022237003236370C6B229
:1054200001AB02341046D1B28E4204F1020401D81D
:105430001AB070BD13F8011B04F8021C04F8010C2B
:105440000132F0E708B5302383F311880348FFF7F2
:1054500045FA002383F3118808BD00BF586100207E
:1054600090F8443003F01F02012A03D190F8452040
:105470000B2A17D003F06003202B08D1B0F8483076
:105480002BB990F84520212A03D81F2A0CD8FFF702
:1054900007BA222AFBD11A46C0E90E320023036460
:1054A000012070470023F6E7014B0722F4E700BF15
:1054B000A823002010B50446052916D8DFE801F01E
:1054C00016150316161D302383F311880E4A012189
:1054D000FFF7A4FA20460D4A0221FFF79FFA0C4875
:1054E000FFF7C8F9002383F3118810BD302383F33D
:1054F00011880748FFF794F9F4E7302383F3118804
:105500000348FFF7ABF9EDE7F86E0008D46E00082A
:105510005861002038B50B4D0B4C0C492A462046EB
:10552000FFF76AFF05F1CA0204F108000849FFF716
:1055300063FF05F5CA7204F110000649BDE8384062
:10554000FFF75ABFF85E0020902300209C6E0008F1
:10555000A66E0008B16E000870B5044608460D46F8
:10556000FCF7C4FDC6B22046013403780BB91846D7
:1055700070BD32462946FCF7A5FD0028F3D1012075
:10558000F6E700002DE9F04105460C46FCF7AEFDBC
:105590002749C6B22846FFF7DFFF08B10136F6B249
:1055A00024492846FFF7D8FF08B11036F6B2632E1B
:1055B00007D81F4FDFF87C802E7846B92670BDE8EB
:1055C000F08129462046BDE8F041FBF73FBA252E81
:1055D00029D1072239462846FCF774FD38B9164A06
:1055E000136823605368636007350834E4E70822D2
:1055F00041462846FCF766FDA8B9104B1048114EED
:10560000A21C197809090232415C02F8041C13F843
:10561000011B01F00F01B342415C02F8031CF0D101
:1056200018340835C8E704F8016B0135C4E700BF3A
:10563000886F0008B16E0008626D0008107AFF1FC5
:10564000906F00081C7AFF1FBFF34F8F024AD36888
:10565000DB03FCD4704700BF003C024008B5094B97
:105660001B7873B9FFF7F0FF074B1A69002ABFBF19
:10567000064A5A6002F188325A601A6822F480623F
:105680001A6008BDF0650020003C02402301674518
:1056900008B50B4B1B7893B9FFF7D6FF094B1A6976
:1056A00042F000421A611A6842F480521A601A6885
:1056B00022F480521A601A6842F480621A6008BDAF
:1056C000F0650020003C02400B28F0B515D80C4CCA
:1056D0000C49237873B90C4D0E464FF0006201332C
:1056E00055F8047B46F8042BDBB20C2B3A44F6D178
:1056F0000123237051F82000F0BD0020FCE700BF1B
:10570000F1650020F4650020A46F0008014B53F8F8
:1057100020007047A46F00080C2070470B2810B5BC
:10572000044601D9002010BDFFF7CEFF064B53F809
:1057300024301844C21A0BB90120F4E71268013270
:10574000F0D1043BF6E700BFA46F00080B2810B5AA
:10575000044621D8FFF778FFFFF780FF0F4AF323B5
:10576000D360C300DBB243F4007343F00203136160
:10577000136943F480331361FFF766FFFFF7A4FF5B
:10578000074B53F8241000F037F9FFF781FF20464C
:10579000BDE81040FFF7C2BF002010BD003C024032
:1057A000A46F0008F8B5D507144641D48318B3F1A7
:1057B000016F3DD82B4B1B68DA0739D52A4FFFF70D
:1057C0004DFFF323FB60FFF73FFF40F20126032C60
:1057D00015D824F00104244D0C44401A40F201175E
:1057E000A1422B6901EB000624D123F001032B61B8
:1057F000FFF74EFF0120F8BD043C0430E7E78307C4
:10580000E7D13B6923F440733B613B6933433B6120
:1058100051F8045B0560BFF34F8FFFF715FF036876
:105820009D42E9D03B6923F001033B61FFF730FF64
:105830000020E0E723F440732B612B693B432B618D
:105840000B883380BFF34F8FFFF7FEFE368831F8A9
:10585000023BB6B2B342C3D02B6923F001032B61E4
:10586000E4E700BF00380240003C0240084908B5A8
:105870000B7828B11BB9FFF7F1FE01230B7008BDAF
:10588000002BFCD0BDE808400870FFF701BF00BF47
:10589000F065002008B50649064800F0AFF8BDE8FD
:1058A00008404FF480314FF0805000F0A7B800BF9F
:1058B00000FF01000001002008461146FAF74CBD28
:1058C0000120FAF749BD00000846FAF767BD00005D
:1058D00038B5EFF311859DB9EFF30584C4F30804DF
:1058E000302334B183F31188FFF752FD85F311881B
:1058F00038BD83F31188FFF74BFD84F3118838BD61
:10590000BDE83840FFF744BD38B5FFF7E1FF104C64
:10591000104AC00840EA4170A0FB025EC908A0FB23
:10592000040C1CEB05004FF00003A1FB04455B4198
:105930000019A1FB021043EB050311EB0E0140F12E
:1059400000005B1840F100001B0943EA007038BDFD
:10595000CFF753E3A59BC42010B50244064BD2B247
:10596000904200D110BD441C00B253F8200041F811
:10597000040BE0B2F4E700BF502800400F4B30B5F5
:105980001C6F240407D41C6F44F400741C671C6F44
:1059900044F400441C670A4C236843F4807323607A
:1059A0000244084BD2B2904200D130BD441C00B238
:1059B00051F8045B43F82050E0B2F4E700380240AD
:1059C000007000405028004007B5012201A90020C6
:1059D000FFF7C2FF019803B05DF804FB13B504465E
:1059E000FFF7F2FFA04205D0012201A90020019497
:1059F000FFF7C4FF02B010BD704700007047000001
:105A000070470000074B45F255521A6002225A6057
:105A100040F6FF729A604CF6CC421A60024B0122AB
:105A20001A7070470030004024660020034B1B783A
:105A30001BB1034B4AF6AA221A6070472466002065
:105A400000300040034B1A681AB9034AD2F8742890
:105A50001A6070472866002000300240024B4FF069
:105A60008072C3F8742870470030024008B5FFF711
:105A7000E9FF024B1868C0F3407008BD286600209B
:105A800008B5FFF7DFFF024B1868C0F3007008BDD0
:105A90002866002070470000FEE700000A4B0B4814
:105AA0000B4A90420BD30B4BDA1C121AC11E22F088
:105AB00003028B4238BF00220021FCF719BB53F8C8
:105AC000041B40F8041BECE7C071000828670020A5
:105AD000286700202867002070B5D0E915439E682C
